{
  "_format": "hh-sol-artifact-1",
  "contractName": "BusinessKYC",
  "sourceName": "contracts/BusinessKYC.sol",
  "abi": [
    {
      "inputs": [],
      "stateMutability": "nonpayable",
      "type": "constructor"
    },
    {
      "inputs": [],
      "name": "AccessControlBadConfirmation",
      "type": "error"
    },
    {
      "inputs": [
        {
          "internalType": "address",
          "name": "account",
          "type": "address"
        },
        {
          "internalType": "bytes32",
          "name": "neededRole",
          "type": "bytes32"
        }
      ],
      "name": "AccessControlUnauthorizedAccount",
      "type": "error"
    },
    {
      "inputs": [],
      "name": "EnforcedPause",
      "type": "error"
    },
    {
      "inputs": [],
      "name": "ExpectedPause",
      "type": "error"
    },
    {
      "inputs": [],
      "name": "ReentrancyGuardReentrantCall",
      "type": "error"
    },
    {
      "anonymous": false,
      "inputs": [
        {
          "indexed": true,
          "internalType": "uint256",
          "name": "id",
          "type": "uint256"
        },
        {
          "indexed": true,
          "internalType": "address",
          "name": "walletAddress",
          "type": "address"
        },
        {
          "indexed": false,
          "internalType": "bool",
          "name": "status",
          "type": "bool"
        },
        {
          "indexed": false,
          "internalType": "uint256",
          "name": "timestamp",
          "type": "uint256"
        }
      ],
      "name": "EnterpriseApproved",
      "type": "event"
    },
    {
      "anonymous": false,
      "inputs": [
        {
          "indexed": true,
          "internalType": "uint256",
          "name": "id",
          "type": "uint256"
        },
        {
          "indexed": true,
          "internalType": "address",
          "name": "walletAddress",
          "type": "address"
        },
        {
          "indexed": false,
          "internalType": "uint256",
          "name": "timestamp",
          "type": "uint256"
        }
      ],
      "name": "EnterpriseDeleted",
      "type": "event"
    },
    {
      "anonymous": false,
      "inputs": [
        {
          "indexed": true,
          "internalType": "uint256",
          "name": "id",
          "type": "uint256"
        },
        {
          "indexed": true,
          "internalType": "address",
          "name": "walletAddress",
          "type": "address"
        },
        {
          "indexed": false,
          "internalType": "string",
          "name": "companyName",
          "type": "string"
        },
        {
          "indexed": false,
          "internalType": "uint256",
          "name": "timestamp",
          "type": "uint256"
        }
      ],
      "name": "EnterpriseRegistered",
      "type": "event"
    },
    {
      "anonymous": false,
      "inputs": [
        {
          "indexed": true,
          "internalType": "uint256",
          "name": "id",
          "type": "uint256"
        },
        {
          "indexed": true,
          "internalType": "address",
          "name": "walletAddress",
          "type": "address"
        },
        {
          "indexed": false,
          "internalType": "string",
          "name": "companyName",
          "type": "string"
        },
        {
          "indexed": false,
          "internalType": "uint256",
          "name": "timestamp",
          "type": "uint256"
        }
      ],
      "name": "EnterpriseUpdated",
      "type": "event"
    },
    {
      "anonymous": false,
      "inputs": [
        {
          "indexed": false,
          "internalType": "address",
          "name": "account",
          "type": "address"
        }
      ],
      "name": "Paused",
      "type": "event"
    },
    {
      "anonymous": false,
      "inputs": [
        {
          "indexed": true,
          "internalType": "bytes32",
          "name": "role",
          "type": "bytes32"
        },
        {
          "indexed": true,
          "internalType": "bytes32",
          "name": "previousAdminRole",
          "type": "bytes32"
        },
        {
          "indexed": true,
          "internalType": "bytes32",
          "name": "newAdminRole",
          "type": "bytes32"
        }
      ],
      "name": "RoleAdminChanged",
      "type": "event"
    },
    {
      "anonymous": false,
      "inputs": [
        {
          "indexed": true,
          "internalType": "bytes32",
          "name": "role",
          "type": "bytes32"
        },
        {
          "indexed": true,
          "internalType": "address",
          "name": "account",
          "type": "address"
        },
        {
          "indexed": true,
          "internalType": "address",
          "name": "sender",
          "type": "address"
        }
      ],
      "name": "RoleGranted",
      "type": "event"
    },
    {
      "anonymous": false,
      "inputs": [
        {
          "indexed": true,
          "internalType": "bytes32",
          "name": "role",
          "type": "bytes32"
        },
        {
          "indexed": true,
          "internalType": "address",
          "name": "account",
          "type": "address"
        },
        {
          "indexed": true,
          "internalType": "address",
          "name": "sender",
          "type": "address"
        }
      ],
      "name": "RoleRevoked",
      "type": "event"
    },
    {
      "anonymous": false,
      "inputs": [
        {
          "indexed": false,
          "internalType": "address",
          "name": "account",
          "type": "address"
        }
      ],
      "name": "Unpaused",
      "type": "event"
    },
    {
      "inputs": [],
      "name": "ADMIN_ROLE",
      "outputs": [
        {
          "internalType": "bytes32",
          "name": "",
          "type": "bytes32"
        }
      ],
      "stateMutability": "view",
      "type": "function"
    },
    {
      "inputs": [],
      "name": "DEFAULT_ADMIN_ROLE",
      "outputs": [
        {
          "internalType": "bytes32",
          "name": "",
          "type": "bytes32"
        }
      ],
      "stateMutability": "view",
      "type": "function"
    },
    {
      "inputs": [
        {
          "internalType": "address",
          "name": "_walletAddress",
          "type": "address"
        },
        {
          "internalType": "string",
          "name": "_certificateImage",
          "type": "string"
        },
        {
          "internalType": "string",
          "name": "_idCardFrontImage",
          "type": "string"
        },
        {
          "internalType": "string",
          "name": "_idCardBackImage",
          "type": "string"
        },
        {
          "internalType": "string",
          "name": "_email",
          "type": "string"
        }
      ],
      "name": "addAdditionalInfo",
      "outputs": [],
      "stateMutability": "nonpayable",
      "type": "function"
    },
    {
      "inputs": [
        {
          "internalType": "address",
          "name": "_walletAddress",
          "type": "address"
        }
      ],
      "name": "adminViewEnterpriseInfo",
      "outputs": [
        {
          "components": [
            {
              "internalType": "uint256",
              "name": "id",
              "type": "uint256"
            },
            {
              "internalType": "string",
              "name": "companyName",
              "type": "string"
            },
            {
              "internalType": "string",
              "name": "companyType",
              "type": "string"
            },
            {
              "internalType": "uint256",
              "name": "establishedDate",
              "type": "uint256"
            },
            {
              "internalType": "string",
              "name": "businessRegistrationNumber",
              "type": "string"
            },
            {
              "internalType": "string",
              "name": "address_",
              "type": "string"
            },
            {
              "internalType": "string",
              "name": "industry",
              "type": "string"
            },
            {
              "internalType": "uint256",
              "name": "employeeCount",
              "type": "uint256"
            },
            {
              "internalType": "string",
              "name": "certificateImage",
              "type": "string"
            },
            {
              "internalType": "string",
              "name": "idCardFrontImage",
              "type": "string"
            },
            {
              "internalType": "string",
              "name": "idCardBackImage",
              "type": "string"
            },
            {
              "internalType": "bool",
              "name": "isApproved",
              "type": "bool"
            },
            {
              "internalType": "string",
              "name": "email",
              "type": "string"
            },
            {
              "internalType": "address",
              "name": "walletAddress",
              "type": "address"
            },
            {
              "internalType": "uint256",
              "name": "createdAt",
              "type": "uint256"
            },
            {
              "internalType": "uint256",
              "name": "updatedAt",
              "type": "uint256"
            },
            {
              "internalType": "bool",
              "name": "exists",
              "type": "bool"
            }
          ],
          "internalType": "struct BusinessKYC.Enterprise",
          "name": "",
          "type": "tuple"
        }
      ],
      "stateMutability": "view",
      "type": "function"
    },
    {
      "inputs": [
        {
          "internalType": "address",
          "name": "_walletAddress",
          "type": "address"
        },
        {
          "internalType": "bool",
          "name": "_approvalStatus",
          "type": "bool"
        }
      ],
      "name": "approveEnterprise",
      "outputs": [],
      "stateMutability": "nonpayable",
      "type": "function"
    },
    {
      "inputs": [
        {
          "internalType": "address",
          "name": "_walletAddress",
          "type": "address"
        }
      ],
      "name": "checkEnterpriseExists",
      "outputs": [
        {
          "internalType": "bool",
          "name": "",
          "type": "bool"
        }
      ],
      "stateMutability": "view",
      "type": "function"
    },
    {
      "inputs": [
        {
          "internalType": "address",
          "name": "_walletAddress",
          "type": "address"
        }
      ],
      "name": "deleteEnterprise",
      "outputs": [],
      "stateMutability": "nonpayable",
      "type": "function"
    },
    {
      "inputs": [
        {
          "internalType": "uint256",
          "name": "_start",
          "type": "uint256"
        },
        {
          "internalType": "uint256",
          "name": "_end",
          "type": "uint256"
        }
      ],
      "name": "getEnterpriseListByRange",
      "outputs": [
        {
          "components": [
            {
              "internalType": "uint256",
              "name": "id",
              "type": "uint256"
            },
            {
              "internalType": "string",
              "name": "companyName",
              "type": "string"
            },
            {
              "internalType": "string",
              "name": "companyType",
              "type": "string"
            },
            {
              "internalType": "uint256",
              "name": "establishedDate",
              "type": "uint256"
            },
            {
              "internalType": "string",
              "name": "businessRegistrationNumber",
              "type": "string"
            },
            {
              "internalType": "string",
              "name": "address_",
              "type": "string"
            },
            {
              "internalType": "string",
              "name": "industry",
              "type": "string"
            },
            {
              "internalType": "uint256",
              "name": "employeeCount",
              "type": "uint256"
            },
            {
              "internalType": "string",
              "name": "certificateImage",
              "type": "string"
            },
            {
              "internalType": "string",
              "name": "idCardFrontImage",
              "type": "string"
            },
            {
              "internalType": "string",
              "name": "idCardBackImage",
              "type": "string"
            },
            {
              "internalType": "bool",
              "name": "isApproved",
              "type": "bool"
            },
            {
              "internalType": "string",
              "name": "email",
              "type": "string"
            },
            {
              "internalType": "address",
              "name": "walletAddress",
              "type": "address"
            },
            {
              "internalType": "uint256",
              "name": "createdAt",
              "type": "uint256"
            },
            {
              "internalType": "uint256",
              "name": "updatedAt",
              "type": "uint256"
            },
            {
              "internalType": "bool",
              "name": "exists",
              "type": "bool"
            }
          ],
          "internalType": "struct BusinessKYC.Enterprise[]",
          "name": "",
          "type": "tuple[]"
        }
      ],
      "stateMutability": "view",
      "type": "function"
    },
    {
      "inputs": [
        {
          "internalType": "bytes32",
          "name": "role",
          "type": "bytes32"
        }
      ],
      "name": "getRoleAdmin",
      "outputs": [
        {
          "internalType": "bytes32",
          "name": "",
          "type": "bytes32"
        }
      ],
      "stateMutability": "view",
      "type": "function"
    },
    {
      "inputs": [],
      "name": "getTotalEnterprises",
      "outputs": [
        {
          "internalType": "uint256",
          "name": "",
          "type": "uint256"
        }
      ],
      "stateMutability": "view",
      "type": "function"
    },
    {
      "inputs": [],
      "name": "getWalletAddressList",
      "outputs": [
        {
          "internalType": "address[]",
          "name": "",
          "type": "address[]"
        }
      ],
      "stateMutability": "view",
      "type": "function"
    },
    {
      "inputs": [
        {
          "internalType": "bytes32",
          "name": "role",
          "type": "bytes32"
        },
        {
          "internalType": "address",
          "name": "account",
          "type": "address"
        }
      ],
      "name": "grantRole",
      "outputs": [],
      "stateMutability": "nonpayable",
      "type": "function"
    },
    {
      "inputs": [
        {
          "internalType": "bytes32",
          "name": "role",
          "type": "bytes32"
        },
        {
          "internalType": "address",
          "name": "account",
          "type": "address"
        }
      ],
      "name": "hasRole",
      "outputs": [
        {
          "internalType": "bool",
          "name": "",
          "type": "bool"
        }
      ],
      "stateMutability": "view",
      "type": "function"
    },
    {
      "inputs": [],
      "name": "pause",
      "outputs": [],
      "stateMutability": "nonpayable",
      "type": "function"
    },
    {
      "inputs": [],
      "name": "paused",
      "outputs": [
        {
          "internalType": "bool",
          "name": "",
          "type": "bool"
        }
      ],
      "stateMutability": "view",
      "type": "function"
    },
    {
      "inputs": [
        {
          "internalType": "address",
          "name": "_walletAddress",
          "type": "address"
        },
        {
          "internalType": "string",
          "name": "_companyName",
          "type": "string"
        },
        {
          "internalType": "string",
          "name": "_companyType",
          "type": "string"
        },
        {
          "internalType": "uint256",
          "name": "_establishedDate",
          "type": "uint256"
        },
        {
          "internalType": "string",
          "name": "_businessRegistrationNumber",
          "type": "string"
        },
        {
          "internalType": "string",
          "name": "_address",
          "type": "string"
        },
        {
          "internalType": "string",
          "name": "_industry",
          "type": "string"
        },
        {
          "internalType": "uint256",
          "name": "_employeeCount",
          "type": "uint256"
        }
      ],
      "name": "registerEnterprise",
      "outputs": [],
      "stateMutability": "nonpayable",
      "type": "function"
    },
    {
      "inputs": [
        {
          "internalType": "bytes32",
          "name": "role",
          "type": "bytes32"
        },
        {
          "internalType": "address",
          "name": "callerConfirmation",
          "type": "address"
        }
      ],
      "name": "renounceRole",
      "outputs": [],
      "stateMutability": "nonpayable",
      "type": "function"
    },
    {
      "inputs": [
        {
          "internalType": "bytes32",
          "name": "role",
          "type": "bytes32"
        },
        {
          "internalType": "address",
          "name": "account",
          "type": "address"
        }
      ],
      "name": "revokeRole",
      "outputs": [],
      "stateMutability": "nonpayable",
      "type": "function"
    },
    {
      "inputs": [
        {
          "internalType": "bytes4",
          "name": "interfaceId",
          "type": "bytes4"
        }
      ],
      "name": "supportsInterface",
      "outputs": [
        {
          "internalType": "bool",
          "name": "",
          "type": "bool"
        }
      ],
      "stateMutability": "view",
      "type": "function"
    },
    {
      "inputs": [],
      "name": "unpause",
      "outputs": [],
      "stateMutability": "nonpayable",
      "type": "function"
    },
    {
      "inputs": [
        {
          "internalType": "address",
          "name": "_walletAddress",
          "type": "address"
        },
        {
          "internalType": "string",
          "name": "_certificateImage",
          "type": "string"
        },
        {
          "internalType": "string",
          "name": "_idCardFrontImage",
          "type": "string"
        },
        {
          "internalType": "string",
          "name": "_idCardBackImage",
          "type": "string"
        },
        {
          "internalType": "string",
          "name": "_email",
          "type": "string"
        }
      ],
      "name": "updateAdditionalInfo",
      "outputs": [],
      "stateMutability": "nonpayable",
      "type": "function"
    },
    {
      "inputs": [
        {
          "internalType": "address",
          "name": "_walletAddress",
          "type": "address"
        },
        {
          "internalType": "string",
          "name": "_companyName",
          "type": "string"
        },
        {
          "internalType": "string",
          "name": "_companyType",
          "type": "string"
        },
        {
          "internalType": "uint256",
          "name": "_establishedDate",
          "type": "uint256"
        },
        {
          "internalType": "string",
          "name": "_businessRegistrationNumber",
          "type": "string"
        },
        {
          "internalType": "string",
          "name": "_address",
          "type": "string"
        },
        {
          "internalType": "string",
          "name": "_industry",
          "type": "string"
        },
        {
          "internalType": "uint256",
          "name": "_employeeCount",
          "type": "uint256"
        }
      ],
      "name": "updateBasicInfo",
      "outputs": [],
      "stateMutability": "nonpayable",
      "type": "function"
    },
    {
      "inputs": [
        {
          "internalType": "address",
          "name": "_walletAddress",
          "type": "address"
        }
      ],
      "name": "viewEnterpriseInfo",
      "outputs": [
        {
          "components": [
            {
              "internalType": "uint256",
              "name": "id",
              "type": "uint256"
            },
            {
              "internalType": "string",
              "name": "companyName",
              "type": "string"
            },
            {
              "internalType": "string",
              "name": "companyType",
              "type": "string"
            },
            {
              "internalType": "uint256",
              "name": "establishedDate",
              "type": "uint256"
            },
            {
              "internalType": "string",
              "name": "businessRegistrationNumber",
              "type": "string"
            },
            {
              "internalType": "string",
              "name": "address_",
              "type": "string"
            },
            {
              "internalType": "string",
              "name": "industry",
              "type": "string"
            },
            {
              "internalType": "uint256",
              "name": "employeeCount",
              "type": "uint256"
            },
            {
              "internalType": "string",
              "name": "certificateImage",
              "type": "string"
            },
            {
              "internalType": "string",
              "name": "idCardFrontImage",
              "type": "string"
            },
            {
              "internalType": "string",
              "name": "idCardBackImage",
              "type": "string"
            },
            {
              "internalType": "bool",
              "name": "isApproved",
              "type": "bool"
            },
            {
              "internalType": "string",
              "name": "email",
              "type": "string"
            },
            {
              "internalType": "address",
              "name": "walletAddress",
              "type": "address"
            },
            {
              "internalType": "uint256",
              "name": "createdAt",
              "type": "uint256"
            },
            {
              "internalType": "uint256",
              "name": "updatedAt",
              "type": "uint256"
            },
            {
              "internalType": "bool",
              "name": "exists",
              "type": "bool"
            }
          ],
          "internalType": "struct BusinessKYC.Enterprise",
          "name": "",
          "type": "tuple"
        }
      ],
      "stateMutability": "view",
      "type": "function"
    },
    {
      "inputs": [
        {
          "internalType": "uint256",
          "name": "",
          "type": "uint256"
        }
      ],
      "name": "walletAddressList",
      "outputs": [
        {
          "internalType": "address",
          "name": "",
          "type": "address"
        }
      ],
      "stateMutability": "view",
      "type": "function"
    }
  ],
  "bytecode": "0x608060405260016005553480156200001657600080fd5b506001600081905550620000346000801b336200006e60201b60201c565b50620000677fa49807205ce4d355092ef5a8a18f56e8913cf4a201fbe287825b095693c21775336200006e60201b60201c565b50620001e5565b60006200008283836200017260201b60201c565b620001675760016002600085815260200190815260200160002060000160008473ffffffffffffffffffffffffffffffffffffffff1673ffffffffffffffffffffffffffffffffffffffff16815260200190815260200160002060006101000a81548160ff02191690831515021790555062000103620001dd60201b60201c565b73ffffffffffffffffffffffffffffffffffffffff168273ffffffffffffffffffffffffffffffffffffffff16847f2f8788117e7eff1d82e926ec794901d17c78024a50270940304540a733656f0d60405160405180910390a4600190506200016c565b600090505b92915050565b60006002600084815260200190815260200160002060000160008373ffffffffffffffffffffffffffffffffffffffff1673ffffffffffffffffffffffffffffffffffffffff16815260200190815260200160002060009054906101000a900460ff16905092915050565b600033905090565b614ada80620001f56000396000f3fe608060405234801561001057600080fd5b50600436106101585760003560e01c80638456cb59116100c3578063cd974cfc1161007c578063cd974cfc146103d9578063d547741f146103f5578063dc8baad414610411578063ea55b5791461042d578063fd58981b1461044b578063fdb173161461046757610158565b80638456cb59146103055780638ce37fb81461030f57806390af5c4f1461033f57806391d148541461036f578063a217fddf1461039f578063bb00bf09146103bd57610158565b806336568abe1161011557806336568abe146102575780633f4ba83a1461027357806352c361411461027d5780635c975abb146102ad57806375b238fc146102cb5780637a84fd15146102e957610158565b806301ffc9a71461015d57806302d91bf61461018d5780631612e907146101bd5780631c976d6f146101ed578063248a9ca31461020b5780632f2ff15d1461023b575b600080fd5b61017760048036038101906101729190613435565b610483565b604051610184919061347d565b60405180910390f35b6101a760048036038101906101a291906134ce565b6104fd565b6040516101b49190613864565b60405180910390f35b6101d760048036038101906101d29190613886565b610ccf565b6040516101e491906138c2565b60405180910390f35b6101f5610d0e565b60405161020291906138ec565b60405180910390f35b6102256004803603810190610220919061393d565b610d46565b6040516102329190613979565b60405180910390f35b610255600480360381019061025091906139c0565b610d66565b005b610271600480360381019061026c91906139c0565b610d88565b005b61027b610e03565b005b61029760048036038101906102929190613a00565b610e38565b6040516102a49190613bd2565b60405180910390f35b6102b561152c565b6040516102c2919061347d565b60405180910390f35b6102d3611543565b6040516102e09190613979565b60405180910390f35b61030360048036038101906102fe9190613c20565b611567565b005b61030d611761565b005b61032960048036038101906103249190613a00565b611796565b6040516103369190613bd2565b60405180910390f35b61035960048036038101906103549190613a00565b611ecd565b604051610366919061347d565b60405180910390f35b610389600480360381019061038491906139c0565b611f26565b604051610396919061347d565b60405180910390f35b6103a7611f91565b6040516103b49190613979565b60405180910390f35b6103d760048036038101906103d29190613d95565b611f98565b005b6103f360048036038101906103ee9190613d95565b61214e565b005b61040f600480360381019061040a91906139c0565b6122ac565b005b61042b60048036038101906104269190613e80565b6122ce565b005b610435612537565b6040516104429190614071565b60405180910390f35b61046560048036038101906104609190613a00565b6125f0565b005b610481600480360381019061047c9190613e80565b612a2c565b005b60007f7965db0b000000000000000000000000000000000000000000000000000000007bffffffffffffffffffffffffffffffffffffffffffffffffffffffff1916827bffffffffffffffffffffffffffffffffffffffffffffffffffffffff191614806104f657506104f582612c5a565b5b9050919050565b60607fa49807205ce4d355092ef5a8a18f56e8913cf4a201fbe287825b095693c2177561052981612cc4565b82841061056b576040517f08c379a0000000000000000000000000000000000000000000000000000000008152600401610562906140f0565b60405180910390fd5b6004805490508311156105b3576040517f08c379a00000000000000000000000000000000000000000000000000000000081526004016105aa9061415c565b60405180910390fd5b600084846105c191906141ab565b67ffffffffffffffff8111156105da576105d9613c6a565b5b60405190808252806020026020018201604052801561061357816020015b6106006132ce565b8152602001906001900390816105f85790505b50905060008590505b84811015610cc357600360006004838154811061063c5761063b6141df565b5b9060005260206000200160009054906101000a900473ffffffffffffffffffffffffffffffffffffffff1673ffffffffffffffffffffffffffffffffffffffff1673ffffffffffffffffffffffffffffffffffffffff16815260200190815260200160002060405180610220016040529081600082015481526020016001820180546106c79061423d565b80601f01602080910402602001604051908101604052809291908181526020018280546106f39061423d565b80156107405780601f1061071557610100808354040283529160200191610740565b820191906000526020600020905b81548152906001019060200180831161072357829003601f168201915b505050505081526020016002820180546107599061423d565b80601f01602080910402602001604051908101604052809291908181526020018280546107859061423d565b80156107d25780601f106107a7576101008083540402835291602001916107d2565b820191906000526020600020905b8154815290600101906020018083116107b557829003601f168201915b50505050508152602001600382015481526020016004820180546107f59061423d565b80601f01602080910402602001604051908101604052809291908181526020018280546108219061423d565b801561086e5780601f106108435761010080835404028352916020019161086e565b820191906000526020600020905b81548152906001019060200180831161085157829003601f168201915b505050505081526020016005820180546108879061423d565b80601f01602080910402602001604051908101604052809291908181526020018280546108b39061423d565b80156109005780601f106108d557610100808354040283529160200191610900565b820191906000526020600020905b8154815290600101906020018083116108e357829003601f168201915b505050505081526020016006820180546109199061423d565b80601f01602080910402602001604051908101604052809291908181526020018280546109459061423d565b80156109925780601f1061096757610100808354040283529160200191610992565b820191906000526020600020905b81548152906001019060200180831161097557829003601f168201915b50505050508152602001600782015481526020016008820180546109b59061423d565b80601f01602080910402602001604051908101604052809291908181526020018280546109e19061423d565b8015610a2e5780601f10610a0357610100808354040283529160200191610a2e565b820191906000526020600020905b815481529060010190602001808311610a1157829003601f168201915b50505050508152602001600982018054610a479061423d565b80601f0160208091040260200160405190810160405280929190818152602001828054610a739061423d565b8015610ac05780601f10610a9557610100808354040283529160200191610ac0565b820191906000526020600020905b815481529060010190602001808311610aa357829003601f168201915b50505050508152602001600a82018054610ad99061423d565b80601f0160208091040260200160405190810160405280929190818152602001828054610b059061423d565b8015610b525780601f10610b2757610100808354040283529160200191610b52565b820191906000526020600020905b815481529060010190602001808311610b3557829003601f168201915b50505050508152602001600b820160009054906101000a900460ff16151515158152602001600c82018054610b869061423d565b80601f0160208091040260200160405190810160405280929190818152602001828054610bb29061423d565b8015610bff5780601f10610bd457610100808354040283529160200191610bff565b820191906000526020600020905b815481529060010190602001808311610be257829003601f168201915b50505050508152602001600d820160009054906101000a900473ffffffffffffffffffffffffffffffffffffffff1673ffffffffffffffffffffffffffffffffffffffff1673ffffffffffffffffffffffffffffffffffffffff168152602001600e8201548152602001600f82015481526020016010820160009054906101000a900460ff161515151581525050828783610c9a91906141ab565b81518110610cab57610caa6141df565b5b6020026020010181905250808060010191505061061c565b50809250505092915050565b60048181548110610cdf57600080fd5b906000526020600020016000915054906101000a900473ffffffffffffffffffffffffffffffffffffffff1681565b60007fa49807205ce4d355092ef5a8a18f56e8913cf4a201fbe287825b095693c21775610d3a81612cc4565b60048054905091505090565b600060026000838152602001908152602001600020600101549050919050565b610d6f82610d46565b610d7881612cc4565b610d828383612cd8565b50505050565b610d90612dca565b73ffffffffffffffffffffffffffffffffffffffff168173ffffffffffffffffffffffffffffffffffffffff1614610df4576040517f6697b23200000000000000000000000000000000000000000000000000000000815260040160405180910390fd5b610dfe8282612dd2565b505050565b7fa49807205ce4d355092ef5a8a18f56e8913cf4a201fbe287825b095693c21775610e2d81612cc4565b610e35612ec5565b50565b610e406132ce565b7fa49807205ce4d355092ef5a8a18f56e8913cf4a201fbe287825b095693c21775610e6a81612cc4565b600360008473ffffffffffffffffffffffffffffffffffffffff1673ffffffffffffffffffffffffffffffffffffffff16815260200190815260200160002060100160009054906101000a900460ff16610ef9576040517f08c379a0000000000000000000000000000000000000000000000000000000008152600401610ef0906142ba565b60405180910390fd5b600360008473ffffffffffffffffffffffffffffffffffffffff1673ffffffffffffffffffffffffffffffffffffffff1681526020019081526020016000206040518061022001604052908160008201548152602001600182018054610f5e9061423d565b80601f0160208091040260200160405190810160405280929190818152602001828054610f8a9061423d565b8015610fd75780601f10610fac57610100808354040283529160200191610fd7565b820191906000526020600020905b815481529060010190602001808311610fba57829003601f168201915b50505050508152602001600282018054610ff09061423d565b80601f016020809104026020016040519081016040528092919081815260200182805461101c9061423d565b80156110695780601f1061103e57610100808354040283529160200191611069565b820191906000526020600020905b81548152906001019060200180831161104c57829003601f168201915b505050505081526020016003820154815260200160048201805461108c9061423d565b80601f01602080910402602001604051908101604052809291908181526020018280546110b89061423d565b80156111055780601f106110da57610100808354040283529160200191611105565b820191906000526020600020905b8154815290600101906020018083116110e857829003601f168201915b5050505050815260200160058201805461111e9061423d565b80601f016020809104026020016040519081016040528092919081815260200182805461114a9061423d565b80156111975780601f1061116c57610100808354040283529160200191611197565b820191906000526020600020905b81548152906001019060200180831161117a57829003601f168201915b505050505081526020016006820180546111b09061423d565b80601f01602080910402602001604051908101604052809291908181526020018280546111dc9061423d565b80156112295780601f106111fe57610100808354040283529160200191611229565b820191906000526020600020905b81548152906001019060200180831161120c57829003601f168201915b505050505081526020016007820154815260200160088201805461124c9061423d565b80601f01602080910402602001604051908101604052809291908181526020018280546112789061423d565b80156112c55780601f1061129a576101008083540402835291602001916112c5565b820191906000526020600020905b8154815290600101906020018083116112a857829003601f168201915b505050505081526020016009820180546112de9061423d565b80601f016020809104026020016040519081016040528092919081815260200182805461130a9061423d565b80156113575780601f1061132c57610100808354040283529160200191611357565b820191906000526020600020905b81548152906001019060200180831161133a57829003601f168201915b50505050508152602001600a820180546113709061423d565b80601f016020809104026020016040519081016040528092919081815260200182805461139c9061423d565b80156113e95780601f106113be576101008083540402835291602001916113e9565b820191906000526020600020905b8154815290600101906020018083116113cc57829003601f168201915b50505050508152602001600b820160009054906101000a900460ff16151515158152602001600c8201805461141d9061423d565b80601f01602080910402602001604051908101604052809291908181526020018280546114499061423d565b80156114965780601f1061146b57610100808354040283529160200191611496565b820191906000526020600020905b81548152906001019060200180831161147957829003601f168201915b50505050508152602001600d820160009054906101000a900473ffffffffffffffffffffffffffffffffffffffff1673ffffffffffffffffffffffffffffffffffffffff1673ffffffffffffffffffffffffffffffffffffffff168152602001600e8201548152602001600f82015481526020016010820160009054906101000a900460ff161515151581525050915050919050565b6000600160009054906101000a900460ff16905090565b7fa49807205ce4d355092ef5a8a18f56e8913cf4a201fbe287825b095693c2177581565b7fa49807205ce4d355092ef5a8a18f56e8913cf4a201fbe287825b095693c2177561159181612cc4565b611599612f28565b600360008473ffffffffffffffffffffffffffffffffffffffff1673ffffffffffffffffffffffffffffffffffffffff16815260200190815260200160002060100160009054906101000a900460ff16611628576040517f08c379a000000000000000000000000000000000000000000000000000000000815260040161161f906142ba565b60405180910390fd5b81600360008573ffffffffffffffffffffffffffffffffffffffff1673ffffffffffffffffffffffffffffffffffffffff168152602001908152602001600020600b0160006101000a81548160ff02191690831515021790555042600360008573ffffffffffffffffffffffffffffffffffffffff1673ffffffffffffffffffffffffffffffffffffffff168152602001908152602001600020600f01819055508273ffffffffffffffffffffffffffffffffffffffff16600360008573ffffffffffffffffffffffffffffffffffffffff1673ffffffffffffffffffffffffffffffffffffffff168152602001908152602001600020600001547fa5c42293aed2def168e0d40484703f071e38757d8129799728c7412376b2e1f184426040516117549291906142da565b60405180910390a3505050565b7fa49807205ce4d355092ef5a8a18f56e8913cf4a201fbe287825b095693c2177561178b81612cc4565b611793612f69565b50565b61179e6132ce565b3373ffffffffffffffffffffffffffffffffffffffff168273ffffffffffffffffffffffffffffffffffffffff161461180c576040517f08c379a000000000000000000000000000000000000000000000000000000000815260040161180390614375565b60405180910390fd5b600360008373ffffffffffffffffffffffffffffffffffffffff1673ffffffffffffffffffffffffffffffffffffffff16815260200190815260200160002060100160009054906101000a900460ff1661189b576040517f08c379a0000000000000000000000000000000000000000000000000000000008152600401611892906142ba565b60405180910390fd5b600360008373ffffffffffffffffffffffffffffffffffffffff1673ffffffffffffffffffffffffffffffffffffffff16815260200190815260200160002060405180610220016040529081600082015481526020016001820180546119009061423d565b80601f016020809104026020016040519081016040528092919081815260200182805461192c9061423d565b80156119795780601f1061194e57610100808354040283529160200191611979565b820191906000526020600020905b81548152906001019060200180831161195c57829003601f168201915b505050505081526020016002820180546119929061423d565b80601f01602080910402602001604051908101604052809291908181526020018280546119be9061423d565b8015611a0b5780601f106119e057610100808354040283529160200191611a0b565b820191906000526020600020905b8154815290600101906020018083116119ee57829003601f168201915b5050505050815260200160038201548152602001600482018054611a2e9061423d565b80601f0160208091040260200160405190810160405280929190818152602001828054611a5a9061423d565b8015611aa75780601f10611a7c57610100808354040283529160200191611aa7565b820191906000526020600020905b815481529060010190602001808311611a8a57829003601f168201915b50505050508152602001600582018054611ac09061423d565b80601f0160208091040260200160405190810160405280929190818152602001828054611aec9061423d565b8015611b395780601f10611b0e57610100808354040283529160200191611b39565b820191906000526020600020905b815481529060010190602001808311611b1c57829003601f168201915b50505050508152602001600682018054611b529061423d565b80601f0160208091040260200160405190810160405280929190818152602001828054611b7e9061423d565b8015611bcb5780601f10611ba057610100808354040283529160200191611bcb565b820191906000526020600020905b815481529060010190602001808311611bae57829003601f168201915b5050505050815260200160078201548152602001600882018054611bee9061423d565b80601f0160208091040260200160405190810160405280929190818152602001828054611c1a9061423d565b8015611c675780601f10611c3c57610100808354040283529160200191611c67565b820191906000526020600020905b815481529060010190602001808311611c4a57829003601f168201915b50505050508152602001600982018054611c809061423d565b80601f0160208091040260200160405190810160405280929190818152602001828054611cac9061423d565b8015611cf95780601f10611cce57610100808354040283529160200191611cf9565b820191906000526020600020905b815481529060010190602001808311611cdc57829003601f168201915b50505050508152602001600a82018054611d129061423d565b80601f0160208091040260200160405190810160405280929190818152602001828054611d3e9061423d565b8015611d8b5780601f10611d6057610100808354040283529160200191611d8b565b820191906000526020600020905b815481529060010190602001808311611d6e57829003601f168201915b50505050508152602001600b820160009054906101000a900460ff16151515158152602001600c82018054611dbf9061423d565b80601f0160208091040260200160405190810160405280929190818152602001828054611deb9061423d565b8015611e385780601f10611e0d57610100808354040283529160200191611e38565b820191906000526020600020905b815481529060010190602001808311611e1b57829003601f168201915b50505050508152602001600d820160009054906101000a900473ffffffffffffffffffffffffffffffffffffffff1673ffffffffffffffffffffffffffffffffffffffff1673ffffffffffffffffffffffffffffffffffffffff168152602001600e8201548152602001600f82015481526020016010820160009054906101000a900460ff1615151515815250509050919050565b6000600360008373ffffffffffffffffffffffffffffffffffffffff1673ffffffffffffffffffffffffffffffffffffffff16815260200190815260200160002060100160009054906101000a900460ff169050919050565b60006002600084815260200190815260200160002060000160008373ffffffffffffffffffffffffffffffffffffffff1673ffffffffffffffffffffffffffffffffffffffff16815260200190815260200160002060009054906101000a900460ff16905092915050565b6000801b81565b7fa49807205ce4d355092ef5a8a18f56e8913cf4a201fbe287825b095693c21775611fc281612cc4565b611fca612f28565b600360008773ffffffffffffffffffffffffffffffffffffffff1673ffffffffffffffffffffffffffffffffffffffff16815260200190815260200160002060100160009054906101000a900460ff16612059576040517f08c379a0000000000000000000000000000000000000000000000000000000008152600401612050906142ba565b60405180910390fd5b6000600360008873ffffffffffffffffffffffffffffffffffffffff1673ffffffffffffffffffffffffffffffffffffffff1681526020019081526020016000209050858160080190816120ad9190614541565b50848160090190816120bf9190614541565b508381600a0190816120d19190614541565b508281600c0190816120e39190614541565b504281600f01819055508673ffffffffffffffffffffffffffffffffffffffff1681600001547f420ce43359e49bed45639ff48b974809ebac3e00f7b9e243141b42ffe5f5a0c7836001014260405161213d929190614697565b60405180910390a350505050505050565b7fa49807205ce4d355092ef5a8a18f56e8913cf4a201fbe287825b095693c2177561217881612cc4565b612180612f28565b600360008773ffffffffffffffffffffffffffffffffffffffff1673ffffffffffffffffffffffffffffffffffffffff16815260200190815260200160002060100160009054906101000a900460ff1661220f576040517f08c379a000000000000000000000000000000000000000000000000000000000815260040161220690614713565b60405180910390fd5b6000600360008873ffffffffffffffffffffffffffffffffffffffff1673ffffffffffffffffffffffffffffffffffffffff1681526020019081526020016000209050858160080190816122639190614541565b50848160090190816122759190614541565b508381600a0190816122879190614541565b508281600c0190816122999190614541565b504281600f018190555050505050505050565b6122b582610d46565b6122be81612cc4565b6122c88383612dd2565b50505050565b7fa49807205ce4d355092ef5a8a18f56e8913cf4a201fbe287825b095693c217756122f881612cc4565b612300612fcb565b612308612f28565b6000600360008b73ffffffffffffffffffffffffffffffffffffffff1673ffffffffffffffffffffffffffffffffffffffff168152602001908152602001600020600e01541461238d576040517f08c379a00000000000000000000000000000000000000000000000000000000081526004016123849061477f565b60405180910390fd5b600360008a73ffffffffffffffffffffffffffffffffffffffff1673ffffffffffffffffffffffffffffffffffffffff16815260200190815260200160002060100160009054906101000a900460ff161561241d576040517f08c379a000000000000000000000000000000000000000000000000000000000815260040161241490614811565b60405180910390fd5b600073ffffffffffffffffffffffffffffffffffffffff168973ffffffffffffffffffffffffffffffffffffffff160361248c576040517f08c379a00000000000000000000000000000000000000000000000000000000081526004016124839061487d565b60405180910390fd5b60008851116124d0576040517f08c379a00000000000000000000000000000000000000000000000000000000081526004016124c7906148e9565b60405180910390fd5b6000855111612514576040517f08c379a000000000000000000000000000000000000000000000000000000000815260040161250b9061497b565b60405180910390fd5b6125248989898989898989613011565b61252c613233565b505050505050505050565b60607fa49807205ce4d355092ef5a8a18f56e8913cf4a201fbe287825b095693c2177561256381612cc4565b60048054806020026020016040519081016040528092919081815260200182805480156125e557602002820191906000526020600020905b8160009054906101000a900473ffffffffffffffffffffffffffffffffffffffff1673ffffffffffffffffffffffffffffffffffffffff168152602001906001019080831161259b575b505050505091505090565b7fa49807205ce4d355092ef5a8a18f56e8913cf4a201fbe287825b095693c2177561261a81612cc4565b612622612fcb565b61262a612f28565b600360008373ffffffffffffffffffffffffffffffffffffffff1673ffffffffffffffffffffffffffffffffffffffff16815260200190815260200160002060100160009054906101000a900460ff166126b9576040517f08c379a00000000000000000000000000000000000000000000000000000000081526004016126b0906142ba565b60405180910390fd5b6000600360008473ffffffffffffffffffffffffffffffffffffffff1673ffffffffffffffffffffffffffffffffffffffff168152602001908152602001600020600001549050600360008473ffffffffffffffffffffffffffffffffffffffff1673ffffffffffffffffffffffffffffffffffffffff168152602001908152602001600020600080820160009055600182016000612758919061336c565b600282016000612768919061336c565b6003820160009055600482016000612780919061336c565b600582016000612790919061336c565b6006820160006127a0919061336c565b60078201600090556008820160006127b8919061336c565b6009820160006127c8919061336c565b600a820160006127d8919061336c565b600b820160006101000a81549060ff0219169055600c820160006127fc919061336c565b600d820160006101000a81549073ffffffffffffffffffffffffffffffffffffffff0219169055600e820160009055600f8201600090556010820160006101000a81549060ff0219169055505060005b6004805490508110156129cf578373ffffffffffffffffffffffffffffffffffffffff1660048281548110612884576128836141df565b5b9060005260206000200160009054906101000a900473ffffffffffffffffffffffffffffffffffffffff1673ffffffffffffffffffffffffffffffffffffffff16036129c257600460016004805490506128de91906141ab565b815481106128ef576128ee6141df565b5b9060005260206000200160009054906101000a900473ffffffffffffffffffffffffffffffffffffffff166004828154811061292e5761292d6141df565b5b9060005260206000200160006101000a81548173ffffffffffffffffffffffffffffffffffffffff021916908373ffffffffffffffffffffffffffffffffffffffff16021790555060048054806129885761298761499b565b5b6001900381819060005260206000200160006101000a81549073ffffffffffffffffffffffffffffffffffffffff021916905590556129cf565b808060010191505061284c565b508273ffffffffffffffffffffffffffffffffffffffff16817ffb861eac4fa676369da7df4fcd0249f9c3b18223f7e82da1aef4b343835e20dc42604051612a1791906138ec565b60405180910390a350612a28613233565b5050565b7fa49807205ce4d355092ef5a8a18f56e8913cf4a201fbe287825b095693c21775612a5681612cc4565b612a5e612fcb565b612a66612f28565b600360008a73ffffffffffffffffffffffffffffffffffffffff1673ffffffffffffffffffffffffffffffffffffffff16815260200190815260200160002060100160009054906101000a900460ff16612af5576040517f08c379a0000000000000000000000000000000000000000000000000000000008152600401612aec906142ba565b60405180910390fd5b6000885111612b39576040517f08c379a0000000000000000000000000000000000000000000000000000000008152600401612b30906148e9565b60405180910390fd5b6000600360008b73ffffffffffffffffffffffffffffffffffffffff1673ffffffffffffffffffffffffffffffffffffffff168152602001908152602001600020905088816001019081612b8d9190614541565b5087816002019081612b9f9190614541565b5086816003018190555085816004019081612bba9190614541565b5084816005019081612bcc9190614541565b5083816006019081612bde9190614541565b508281600701819055504281600f01819055508973ffffffffffffffffffffffffffffffffffffffff1681600001547f420ce43359e49bed45639ff48b974809ebac3e00f7b9e243141b42ffe5f5a0c78b42604051612c3e929190614a03565b60405180910390a350612c4f613233565b505050505050505050565b60007f01ffc9a7000000000000000000000000000000000000000000000000000000007bffffffffffffffffffffffffffffffffffffffffffffffffffffffff1916827bffffffffffffffffffffffffffffffffffffffffffffffffffffffff1916149050919050565b612cd581612cd0612dca565b61323d565b50565b6000612ce48383611f26565b612dbf5760016002600085815260200190815260200160002060000160008473ffffffffffffffffffffffffffffffffffffffff1673ffffffffffffffffffffffffffffffffffffffff16815260200190815260200160002060006101000a81548160ff021916908315150217905550612d5c612dca565b73ffffffffffffffffffffffffffffffffffffffff168273ffffffffffffffffffffffffffffffffffffffff16847f2f8788117e7eff1d82e926ec794901d17c78024a50270940304540a733656f0d60405160405180910390a460019050612dc4565b600090505b92915050565b600033905090565b6000612dde8383611f26565b15612eba5760006002600085815260200190815260200160002060000160008473ffffffffffffffffffffffffffffffffffffffff1673ffffffffffffffffffffffffffffffffffffffff16815260200190815260200160002060006101000a81548160ff021916908315150217905550612e57612dca565b73ffffffffffffffffffffffffffffffffffffffff168273ffffffffffffffffffffffffffffffffffffffff16847ff6391f5c32d9c69d2a47ea670b442974b53935d1edc7fd64eb21e047a839171b60405160405180910390a460019050612ebf565b600090505b92915050565b612ecd61328e565b6000600160006101000a81548160ff0219169083151502179055507f5db9ee0a495bf2e6ff9c91a7834c1ba4fdd244a5e8aa4e537bd38aeae4b073aa612f11612dca565b604051612f1e91906138c2565b60405180910390a1565b612f3061152c565b15612f67576040517fd93c066500000000000000000000000000000000000000000000000000000000815260040160405180910390fd5b565b612f71612f28565b60018060006101000a81548160ff0219169083151502179055507f62e78cea01bee320cd4e420270b5ea74000d11b0c9f74754ebdbfc544b05a258612fb4612dca565b604051612fc191906138c2565b60405180910390a1565b600260005403613007576040517f3ee5aeb500000000000000000000000000000000000000000000000000000000815260040160405180910390fd5b6002600081905550565b60006005600081548092919061302690614a33565b9190505590506000600360008b73ffffffffffffffffffffffffffffffffffffffff1673ffffffffffffffffffffffffffffffffffffffff1681526020019081526020016000209050818160000181905550888160010190816130899190614541565b508781600201908161309b9190614541565b50868160030181905550858160040190816130b69190614541565b50848160050190816130c89190614541565b50838160060190816130da9190614541565b50828160070181905550600081600b0160006101000a81548160ff0219169083151502179055508981600d0160006101000a81548173ffffffffffffffffffffffffffffffffffffffff021916908373ffffffffffffffffffffffffffffffffffffffff1602179055504281600e01819055504281600f018190555060018160100160006101000a81548160ff02191690831515021790555060048a9080600181540180825580915050600190039060005260206000200160009091909190916101000a81548173ffffffffffffffffffffffffffffffffffffffff021916908373ffffffffffffffffffffffffffffffffffffffff1602179055508973ffffffffffffffffffffffffffffffffffffffff16827f8ee4e5bcca8d23d3f580695ed0d37f45f3ca5b45745c190b6748f7083945112e8b4260405161321f929190614a03565b60405180910390a350505050505050505050565b6001600081905550565b6132478282611f26565b61328a5780826040517fe2517d3f000000000000000000000000000000000000000000000000000000008152600401613281929190614a7b565b60405180910390fd5b5050565b61329661152c565b6132cc576040517f8dfc202b00000000000000000000000000000000000000000000000000000000815260040160405180910390fd5b565b604051806102200160405280600081526020016060815260200160608152602001600081526020016060815260200160608152602001606081526020016000815260200160608152602001606081526020016060815260200160001515815260200160608152602001600073ffffffffffffffffffffffffffffffffffffffff16815260200160008152602001600081526020016000151581525090565b5080546133789061423d565b6000825580601f1061338a57506133a9565b601f0160209004906000526020600020908101906133a891906133ac565b5b50565b5b808211156133c55760008160009055506001016133ad565b5090565b6000604051905090565b600080fd5b600080fd5b60007fffffffff0000000000000000000000000000000000000000000000000000000082169050919050565b613412816133dd565b811461341d57600080fd5b50565b60008135905061342f81613409565b92915050565b60006020828403121561344b5761344a6133d3565b5b600061345984828501613420565b91505092915050565b60008115159050919050565b61347781613462565b82525050565b6000602082019050613492600083018461346e565b92915050565b6000819050919050565b6134ab81613498565b81146134b657600080fd5b50565b6000813590506134c8816134a2565b92915050565b600080604083850312156134e5576134e46133d3565b5b60006134f3858286016134b9565b9250506020613504858286016134b9565b9150509250929050565b600081519050919050565b600082825260208201905092915050565b6000819050602082019050919050565b61354381613498565b82525050565b600081519050919050565b600082825260208201905092915050565b60005b83811015613583578082015181840152602081019050613568565b60008484015250505050565b6000601f19601f8301169050919050565b60006135ab82613549565b6135b58185613554565b93506135c5818560208601613565565b6135ce8161358f565b840191505092915050565b6135e281613462565b82525050565b600073ffffffffffffffffffffffffffffffffffffffff82169050919050565b6000613613826135e8565b9050919050565b61362381613608565b82525050565b600061022083016000830151613642600086018261353a565b506020830151848203602086015261365a82826135a0565b9150506040830151848203604086015261367482826135a0565b9150506060830151613689606086018261353a565b50608083015184820360808601526136a182826135a0565b91505060a083015184820360a08601526136bb82826135a0565b91505060c083015184820360c08601526136d582826135a0565b91505060e08301516136ea60e086018261353a565b5061010083015184820361010086015261370482826135a0565b91505061012083015184820361012086015261372082826135a0565b91505061014083015184820361014086015261373c82826135a0565b9150506101608301516137536101608601826135d9565b5061018083015184820361018086015261376d82826135a0565b9150506101a08301516137846101a086018261361a565b506101c08301516137996101c086018261353a565b506101e08301516137ae6101e086018261353a565b506102008301516137c36102008601826135d9565b508091505092915050565b60006137da8383613629565b905092915050565b6000602082019050919050565b60006137fa8261350e565b6138048185613519565b9350836020820285016138168561352a565b8060005b85811015613852578484038952815161383385826137ce565b945061383e836137e2565b925060208a0199505060018101905061381a565b50829750879550505050505092915050565b6000602082019050818103600083015261387e81846137ef565b905092915050565b60006020828403121561389c5761389b6133d3565b5b60006138aa848285016134b9565b91505092915050565b6138bc81613608565b82525050565b60006020820190506138d760008301846138b3565b92915050565b6138e681613498565b82525050565b600060208201905061390160008301846138dd565b92915050565b6000819050919050565b61391a81613907565b811461392557600080fd5b50565b60008135905061393781613911565b92915050565b600060208284031215613953576139526133d3565b5b600061396184828501613928565b91505092915050565b61397381613907565b82525050565b600060208201905061398e600083018461396a565b92915050565b61399d81613608565b81146139a857600080fd5b50565b6000813590506139ba81613994565b92915050565b600080604083850312156139d7576139d66133d3565b5b60006139e585828601613928565b92505060206139f6858286016139ab565b9150509250929050565b600060208284031215613a1657613a156133d3565b5b6000613a24848285016139ab565b91505092915050565b600061022083016000830151613a46600086018261353a565b5060208301518482036020860152613a5e82826135a0565b91505060408301518482036040860152613a7882826135a0565b9150506060830151613a8d606086018261353a565b5060808301518482036080860152613aa582826135a0565b91505060a083015184820360a0860152613abf82826135a0565b91505060c083015184820360c0860152613ad982826135a0565b91505060e0830151613aee60e086018261353a565b50610100830151848203610100860152613b0882826135a0565b915050610120830151848203610120860152613b2482826135a0565b915050610140830151848203610140860152613b4082826135a0565b915050610160830151613b576101608601826135d9565b50610180830151848203610180860152613b7182826135a0565b9150506101a0830151613b886101a086018261361a565b506101c0830151613b9d6101c086018261353a565b506101e0830151613bb26101e086018261353a565b50610200830151613bc76102008601826135d9565b508091505092915050565b60006020820190508181036000830152613bec8184613a2d565b905092915050565b613bfd81613462565b8114613c0857600080fd5b50565b600081359050613c1a81613bf4565b92915050565b60008060408385031215613c3757613c366133d3565b5b6000613c45858286016139ab565b9250506020613c5685828601613c0b565b9150509250929050565b600080fd5b600080fd5b7f4e487b7100000000000000000000000000000000000000000000000000000000600052604160045260246000fd5b613ca28261358f565b810181811067ffffffffffffffff82111715613cc157613cc0613c6a565b5b80604052505050565b6000613cd46133c9565b9050613ce08282613c99565b919050565b600067ffffffffffffffff821115613d0057613cff613c6a565b5b613d098261358f565b9050602081019050919050565b82818337600083830152505050565b6000613d38613d3384613ce5565b613cca565b905082815260208101848484011115613d5457613d53613c65565b5b613d5f848285613d16565b509392505050565b600082601f830112613d7c57613d7b613c60565b5b8135613d8c848260208601613d25565b91505092915050565b600080600080600060a08688031215613db157613db06133d3565b5b6000613dbf888289016139ab565b955050602086013567ffffffffffffffff811115613de057613ddf6133d8565b5b613dec88828901613d67565b945050604086013567ffffffffffffffff811115613e0d57613e0c6133d8565b5b613e1988828901613d67565b935050606086013567ffffffffffffffff811115613e3a57613e396133d8565b5b613e4688828901613d67565b925050608086013567ffffffffffffffff811115613e6757613e666133d8565b5b613e7388828901613d67565b9150509295509295909350565b600080600080600080600080610100898b031215613ea157613ea06133d3565b5b6000613eaf8b828c016139ab565b985050602089013567ffffffffffffffff811115613ed057613ecf6133d8565b5b613edc8b828c01613d67565b975050604089013567ffffffffffffffff811115613efd57613efc6133d8565b5b613f098b828c01613d67565b9650506060613f1a8b828c016134b9565b955050608089013567ffffffffffffffff811115613f3b57613f3a6133d8565b5b613f478b828c01613d67565b94505060a089013567ffffffffffffffff811115613f6857613f676133d8565b5b613f748b828c01613d67565b93505060c089013567ffffffffffffffff811115613f9557613f946133d8565b5b613fa18b828c01613d67565b92505060e0613fb28b828c016134b9565b9150509295985092959890939650565b600081519050919050565b600082825260208201905092915050565b6000819050602082019050919050565b6000613ffa838361361a565b60208301905092915050565b6000602082019050919050565b600061401e82613fc2565b6140288185613fcd565b935061403383613fde565b8060005b8381101561406457815161404b8882613fee565b975061405683614006565b925050600181019050614037565b5085935050505092915050565b6000602082019050818103600083015261408b8184614013565b905092915050565b600082825260208201905092915050565b7f5374617274206d757374206265206c657373207468616e20656e640000000000600082015250565b60006140da601b83614093565b91506140e5826140a4565b602082019050919050565b60006020820190508181036000830152614109816140cd565b9050919050565b7f456e64206578636565647320746f74616c20656e746572707269736573000000600082015250565b6000614146601d83614093565b915061415182614110565b602082019050919050565b6000602082019050818103600083015261417581614139565b9050919050565b7f4e487b7100000000000000000000000000000000000000000000000000000000600052601160045260246000fd5b60006141b682613498565b91506141c183613498565b92508282039050818111156141d9576141d861417c565b5b92915050565b7f4e487b7100000000000000000000000000000000000000000000000000000000600052603260045260246000fd5b7f4e487b7100000000000000000000000000000000000000000000000000000000600052602260045260246000fd5b6000600282049050600182168061425557607f821691505b6020821081036142685761426761420e565b5b50919050565b7f456e746572707269736520646f6573206e6f7420657869737400000000000000600082015250565b60006142a4601983614093565b91506142af8261426e565b602082019050919050565b600060208201905081810360008301526142d381614297565b9050919050565b60006040820190506142ef600083018561346e565b6142fc60208301846138dd565b9392505050565b7f43616e206f6e6c79207669657720796f7572206f776e20696e666f726d61746960008201527f6f6e000000000000000000000000000000000000000000000000000000000000602082015250565b600061435f602283614093565b915061436a82614303565b604082019050919050565b6000602082019050818103600083015261438e81614352565b9050919050565b60008190508160005260206000209050919050565b60006020601f8301049050919050565b600082821b905092915050565b6000600883026143f77fffffffffffffffffffffffffffffffffffffffffffffffffffffffffffffffff826143ba565b61440186836143ba565b95508019841693508086168417925050509392505050565b6000819050919050565b600061443e61443961443484613498565b614419565b613498565b9050919050565b6000819050919050565b61445883614423565b61446c61446482614445565b8484546143c7565b825550505050565b600090565b614481614474565b61448c81848461444f565b505050565b5b818110156144b0576144a5600082614479565b600181019050614492565b5050565b601f8211156144f5576144c681614395565b6144cf846143aa565b810160208510156144de578190505b6144f26144ea856143aa565b830182614491565b50505b505050565b600082821c905092915050565b6000614518600019846008026144fa565b1980831691505092915050565b60006145318383614507565b9150826002028217905092915050565b61454a82613549565b67ffffffffffffffff81111561456357614562613c6a565b5b61456d825461423d565b6145788282856144b4565b600060209050601f8311600181146145ab5760008415614599578287015190505b6145a38582614525565b86555061460b565b601f1984166145b986614395565b60005b828110156145e1578489015182556001820191506020850194506020810190506145bc565b868310156145fe57848901516145fa601f891682614507565b8355505b6001600288020188555050505b505050505050565b600081546146208161423d565b61462a8186614093565b94506001821660008114614645576001811461465b5761468e565b60ff19831686528115156020028601935061468e565b61466485614395565b60005b8381101561468657815481890152600182019150602081019050614667565b808801955050505b50505092915050565b600060408201905081810360008301526146b18185614613565b90506146c060208301846138dd565b9392505050565b7f456e746572707269736520686173206e6f74206265656e206372656174656400600082015250565b60006146fd601f83614093565b9150614708826146c7565b602082019050919050565b6000602082019050818103600083015261472c816146f0565b9050919050565b7f456e746572707269736520616c72656164792072656769737465726564000000600082015250565b6000614769601d83614093565b915061477482614733565b602082019050919050565b600060208201905081810360008301526147988161475c565b9050919050565b7f456e746572707269736520616c7265616479206578697374732077697468207460008201527f6869732077616c6c657420616464726573730000000000000000000000000000602082015250565b60006147fb603283614093565b91506148068261479f565b604082019050919050565b6000602082019050818103600083015261482a816147ee565b9050919050565b7f496e76616c69642077616c6c6574206164647265737300000000000000000000600082015250565b6000614867601683614093565b915061487282614831565b602082019050919050565b600060208201905081810360008301526148968161485a565b9050919050565b7f436f6d70616e79206e616d652063616e6e6f7420626520656d70747900000000600082015250565b60006148d3601c83614093565b91506148de8261489d565b602082019050919050565b60006020820190508181036000830152614902816148c6565b9050919050565b7f427573696e65737320726567697374726174696f6e206e756d6265722063616e60008201527f6e6f7420626520656d7074790000000000000000000000000000000000000000602082015250565b6000614965602c83614093565b915061497082614909565b604082019050919050565b6000602082019050818103600083015261499481614958565b9050919050565b7f4e487b7100000000000000000000000000000000000000000000000000000000600052603160045260246000fd5b60006149d582613549565b6149df8185614093565b93506149ef818560208601613565565b6149f88161358f565b840191505092915050565b60006040820190508181036000830152614a1d81856149ca565b9050614a2c60208301846138dd565b9392505050565b6000614a3e82613498565b91507fffffffffffffffffffffffffffffffffffffffffffffffffffffffffffffffff8203614a7057614a6f61417c565b5b600182019050919050565b6000604082019050614a9060008301856138b3565b614a9d602083018461396a565b939250505056fea2646970667358221220d431cf7158b0228a2f86fadefda1a9b2eaeed35cc59c5adb263109b952fb9a6064736f6c63430008180033",
  "linkReferences": {},
  "deployedLinkReferences": {}
}