{
  "_format": "hh-sol-artifact-1",
  "contractName": "IndividualKYC",
  "sourceName": "contracts/IndividualKYC.sol",
  "abi": [
    {
      "inputs": [],
      "stateMutability": "nonpayable",
      "type": "constructor"
    },
    {
      "inputs": [],
      "name": "AccessControlBadConfirmation",
      "type": "error"
    },
    {
      "inputs": [
        {
          "internalType": "address",
          "name": "account",
          "type": "address"
        },
        {
          "internalType": "bytes32",
          "name": "neededRole",
          "type": "bytes32"
        }
      ],
      "name": "AccessControlUnauthorizedAccount",
      "type": "error"
    },
    {
      "inputs": [],
      "name": "EnforcedPause",
      "type": "error"
    },
    {
      "inputs": [],
      "name": "ExpectedPause",
      "type": "error"
    },
    {
      "inputs": [],
      "name": "ReentrancyGuardReentrantCall",
      "type": "error"
    },
    {
      "anonymous": false,
      "inputs": [
        {
          "indexed": true,
          "internalType": "uint256",
          "name": "id",
          "type": "uint256"
        },
        {
          "indexed": true,
          "internalType": "address",
          "name": "walletAddress",
          "type": "address"
        },
        {
          "indexed": false,
          "internalType": "bool",
          "name": "status",
          "type": "bool"
        },
        {
          "indexed": false,
          "internalType": "uint256",
          "name": "timestamp",
          "type": "uint256"
        }
      ],
      "name": "IndividualApproved",
      "type": "event"
    },
    {
      "anonymous": false,
      "inputs": [
        {
          "indexed": true,
          "internalType": "uint256",
          "name": "id",
          "type": "uint256"
        },
        {
          "indexed": true,
          "internalType": "address",
          "name": "walletAddress",
          "type": "address"
        },
        {
          "indexed": false,
          "internalType": "uint256",
          "name": "timestamp",
          "type": "uint256"
        }
      ],
      "name": "IndividualDeleted",
      "type": "event"
    },
    {
      "anonymous": false,
      "inputs": [
        {
          "indexed": true,
          "internalType": "uint256",
          "name": "id",
          "type": "uint256"
        },
        {
          "indexed": true,
          "internalType": "address",
          "name": "walletAddress",
          "type": "address"
        },
        {
          "indexed": false,
          "internalType": "string",
          "name": "fullName",
          "type": "string"
        },
        {
          "indexed": false,
          "internalType": "uint256",
          "name": "timestamp",
          "type": "uint256"
        }
      ],
      "name": "IndividualRegistered",
      "type": "event"
    },
    {
      "anonymous": false,
      "inputs": [
        {
          "indexed": true,
          "internalType": "uint256",
          "name": "id",
          "type": "uint256"
        },
        {
          "indexed": true,
          "internalType": "address",
          "name": "walletAddress",
          "type": "address"
        },
        {
          "indexed": false,
          "internalType": "string",
          "name": "fullName",
          "type": "string"
        },
        {
          "indexed": false,
          "internalType": "uint256",
          "name": "timestamp",
          "type": "uint256"
        }
      ],
      "name": "IndividualUpdated",
      "type": "event"
    },
    {
      "anonymous": false,
      "inputs": [
        {
          "indexed": false,
          "internalType": "address",
          "name": "account",
          "type": "address"
        }
      ],
      "name": "Paused",
      "type": "event"
    },
    {
      "anonymous": false,
      "inputs": [
        {
          "indexed": true,
          "internalType": "bytes32",
          "name": "role",
          "type": "bytes32"
        },
        {
          "indexed": true,
          "internalType": "bytes32",
          "name": "previousAdminRole",
          "type": "bytes32"
        },
        {
          "indexed": true,
          "internalType": "bytes32",
          "name": "newAdminRole",
          "type": "bytes32"
        }
      ],
      "name": "RoleAdminChanged",
      "type": "event"
    },
    {
      "anonymous": false,
      "inputs": [
        {
          "indexed": true,
          "internalType": "bytes32",
          "name": "role",
          "type": "bytes32"
        },
        {
          "indexed": true,
          "internalType": "address",
          "name": "account",
          "type": "address"
        },
        {
          "indexed": true,
          "internalType": "address",
          "name": "sender",
          "type": "address"
        }
      ],
      "name": "RoleGranted",
      "type": "event"
    },
    {
      "anonymous": false,
      "inputs": [
        {
          "indexed": true,
          "internalType": "bytes32",
          "name": "role",
          "type": "bytes32"
        },
        {
          "indexed": true,
          "internalType": "address",
          "name": "account",
          "type": "address"
        },
        {
          "indexed": true,
          "internalType": "address",
          "name": "sender",
          "type": "address"
        }
      ],
      "name": "RoleRevoked",
      "type": "event"
    },
    {
      "anonymous": false,
      "inputs": [
        {
          "indexed": false,
          "internalType": "address",
          "name": "account",
          "type": "address"
        }
      ],
      "name": "Unpaused",
      "type": "event"
    },
    {
      "inputs": [],
      "name": "ADMIN_ROLE",
      "outputs": [
        {
          "internalType": "bytes32",
          "name": "",
          "type": "bytes32"
        }
      ],
      "stateMutability": "view",
      "type": "function"
    },
    {
      "inputs": [],
      "name": "DEFAULT_ADMIN_ROLE",
      "outputs": [
        {
          "internalType": "bytes32",
          "name": "",
          "type": "bytes32"
        }
      ],
      "stateMutability": "view",
      "type": "function"
    },
    {
      "inputs": [
        {
          "internalType": "address",
          "name": "_walletAddress",
          "type": "address"
        },
        {
          "internalType": "string",
          "name": "_frontCccdImage",
          "type": "string"
        },
        {
          "internalType": "string",
          "name": "_backCccdImage",
          "type": "string"
        },
        {
          "internalType": "string",
          "name": "_email",
          "type": "string"
        }
      ],
      "name": "addAdditionalInfo",
      "outputs": [],
      "stateMutability": "nonpayable",
      "type": "function"
    },
    {
      "inputs": [
        {
          "internalType": "address",
          "name": "_walletAddress",
          "type": "address"
        }
      ],
      "name": "adminViewIndividualInfo",
      "outputs": [
        {
          "components": [
            {
              "internalType": "uint256",
              "name": "id",
              "type": "uint256"
            },
            {
              "internalType": "string",
              "name": "fullName",
              "type": "string"
            },
            {
              "internalType": "uint256",
              "name": "dateOfBirth",
              "type": "uint256"
            },
            {
              "internalType": "string",
              "name": "address_",
              "type": "string"
            },
            {
              "internalType": "string",
              "name": "nationality",
              "type": "string"
            },
            {
              "internalType": "string",
              "name": "cccdNumber",
              "type": "string"
            },
            {
              "internalType": "string",
              "name": "phone",
              "type": "string"
            },
            {
              "internalType": "string",
              "name": "email",
              "type": "string"
            },
            {
              "internalType": "string",
              "name": "frontCccdImage",
              "type": "string"
            },
            {
              "internalType": "string",
              "name": "backCccdImage",
              "type": "string"
            },
            {
              "internalType": "address",
              "name": "walletAddress",
              "type": "address"
            },
            {
              "internalType": "bool",
              "name": "isApproved",
              "type": "bool"
            },
            {
              "internalType": "uint256",
              "name": "createdAt",
              "type": "uint256"
            },
            {
              "internalType": "uint256",
              "name": "updatedAt",
              "type": "uint256"
            },
            {
              "internalType": "bool",
              "name": "exists",
              "type": "bool"
            }
          ],
          "internalType": "struct IndividualKYC.Individual",
          "name": "",
          "type": "tuple"
        }
      ],
      "stateMutability": "view",
      "type": "function"
    },
    {
      "inputs": [
        {
          "internalType": "address",
          "name": "_walletAddress",
          "type": "address"
        },
        {
          "internalType": "bool",
          "name": "_approvalStatus",
          "type": "bool"
        }
      ],
      "name": "approveIndividual",
      "outputs": [],
      "stateMutability": "nonpayable",
      "type": "function"
    },
    {
      "inputs": [
        {
          "internalType": "address",
          "name": "_walletAddress",
          "type": "address"
        }
      ],
      "name": "checkIndividualExists",
      "outputs": [
        {
          "internalType": "bool",
          "name": "",
          "type": "bool"
        }
      ],
      "stateMutability": "view",
      "type": "function"
    },
    {
      "inputs": [
        {
          "internalType": "address",
          "name": "_walletAddress",
          "type": "address"
        }
      ],
      "name": "deleteIndividual",
      "outputs": [],
      "stateMutability": "nonpayable",
      "type": "function"
    },
    {
      "inputs": [
        {
          "internalType": "uint256",
          "name": "_start",
          "type": "uint256"
        },
        {
          "internalType": "uint256",
          "name": "_end",
          "type": "uint256"
        }
      ],
      "name": "getIndividualListByRange",
      "outputs": [
        {
          "components": [
            {
              "internalType": "uint256",
              "name": "id",
              "type": "uint256"
            },
            {
              "internalType": "string",
              "name": "fullName",
              "type": "string"
            },
            {
              "internalType": "uint256",
              "name": "dateOfBirth",
              "type": "uint256"
            },
            {
              "internalType": "string",
              "name": "address_",
              "type": "string"
            },
            {
              "internalType": "string",
              "name": "nationality",
              "type": "string"
            },
            {
              "internalType": "string",
              "name": "cccdNumber",
              "type": "string"
            },
            {
              "internalType": "string",
              "name": "phone",
              "type": "string"
            },
            {
              "internalType": "string",
              "name": "email",
              "type": "string"
            },
            {
              "internalType": "string",
              "name": "frontCccdImage",
              "type": "string"
            },
            {
              "internalType": "string",
              "name": "backCccdImage",
              "type": "string"
            },
            {
              "internalType": "address",
              "name": "walletAddress",
              "type": "address"
            },
            {
              "internalType": "bool",
              "name": "isApproved",
              "type": "bool"
            },
            {
              "internalType": "uint256",
              "name": "createdAt",
              "type": "uint256"
            },
            {
              "internalType": "uint256",
              "name": "updatedAt",
              "type": "uint256"
            },
            {
              "internalType": "bool",
              "name": "exists",
              "type": "bool"
            }
          ],
          "internalType": "struct IndividualKYC.Individual[]",
          "name": "",
          "type": "tuple[]"
        }
      ],
      "stateMutability": "view",
      "type": "function"
    },
    {
      "inputs": [
        {
          "internalType": "bytes32",
          "name": "role",
          "type": "bytes32"
        }
      ],
      "name": "getRoleAdmin",
      "outputs": [
        {
          "internalType": "bytes32",
          "name": "",
          "type": "bytes32"
        }
      ],
      "stateMutability": "view",
      "type": "function"
    },
    {
      "inputs": [],
      "name": "getTotalIndividuals",
      "outputs": [
        {
          "internalType": "uint256",
          "name": "",
          "type": "uint256"
        }
      ],
      "stateMutability": "view",
      "type": "function"
    },
    {
      "inputs": [],
      "name": "getWalletAddressList",
      "outputs": [
        {
          "internalType": "address[]",
          "name": "",
          "type": "address[]"
        }
      ],
      "stateMutability": "view",
      "type": "function"
    },
    {
      "inputs": [
        {
          "internalType": "bytes32",
          "name": "role",
          "type": "bytes32"
        },
        {
          "internalType": "address",
          "name": "account",
          "type": "address"
        }
      ],
      "name": "grantRole",
      "outputs": [],
      "stateMutability": "nonpayable",
      "type": "function"
    },
    {
      "inputs": [
        {
          "internalType": "bytes32",
          "name": "role",
          "type": "bytes32"
        },
        {
          "internalType": "address",
          "name": "account",
          "type": "address"
        }
      ],
      "name": "hasRole",
      "outputs": [
        {
          "internalType": "bool",
          "name": "",
          "type": "bool"
        }
      ],
      "stateMutability": "view",
      "type": "function"
    },
    {
      "inputs": [],
      "name": "pause",
      "outputs": [],
      "stateMutability": "nonpayable",
      "type": "function"
    },
    {
      "inputs": [],
      "name": "paused",
      "outputs": [
        {
          "internalType": "bool",
          "name": "",
          "type": "bool"
        }
      ],
      "stateMutability": "view",
      "type": "function"
    },
    {
      "inputs": [
        {
          "internalType": "address",
          "name": "_walletAddress",
          "type": "address"
        },
        {
          "internalType": "string",
          "name": "_fullName",
          "type": "string"
        },
        {
          "internalType": "uint256",
          "name": "_dateOfBirth",
          "type": "uint256"
        },
        {
          "internalType": "string",
          "name": "_address",
          "type": "string"
        },
        {
          "internalType": "string",
          "name": "_nationality",
          "type": "string"
        },
        {
          "internalType": "string",
          "name": "_cccdNumber",
          "type": "string"
        },
        {
          "internalType": "string",
          "name": "_phone",
          "type": "string"
        }
      ],
      "name": "registerIndividual",
      "outputs": [],
      "stateMutability": "nonpayable",
      "type": "function"
    },
    {
      "inputs": [
        {
          "internalType": "bytes32",
          "name": "role",
          "type": "bytes32"
        },
        {
          "internalType": "address",
          "name": "callerConfirmation",
          "type": "address"
        }
      ],
      "name": "renounceRole",
      "outputs": [],
      "stateMutability": "nonpayable",
      "type": "function"
    },
    {
      "inputs": [
        {
          "internalType": "bytes32",
          "name": "role",
          "type": "bytes32"
        },
        {
          "internalType": "address",
          "name": "account",
          "type": "address"
        }
      ],
      "name": "revokeRole",
      "outputs": [],
      "stateMutability": "nonpayable",
      "type": "function"
    },
    {
      "inputs": [
        {
          "internalType": "bytes4",
          "name": "interfaceId",
          "type": "bytes4"
        }
      ],
      "name": "supportsInterface",
      "outputs": [
        {
          "internalType": "bool",
          "name": "",
          "type": "bool"
        }
      ],
      "stateMutability": "view",
      "type": "function"
    },
    {
      "inputs": [],
      "name": "unpause",
      "outputs": [],
      "stateMutability": "nonpayable",
      "type": "function"
    },
    {
      "inputs": [
        {
          "internalType": "address",
          "name": "_walletAddress",
          "type": "address"
        },
        {
          "internalType": "string",
          "name": "_frontCccdImage",
          "type": "string"
        },
        {
          "internalType": "string",
          "name": "_backCccdImage",
          "type": "string"
        },
        {
          "internalType": "string",
          "name": "_email",
          "type": "string"
        }
      ],
      "name": "updateAdditionalInfo",
      "outputs": [],
      "stateMutability": "nonpayable",
      "type": "function"
    },
    {
      "inputs": [
        {
          "internalType": "address",
          "name": "_walletAddress",
          "type": "address"
        },
        {
          "internalType": "string",
          "name": "_fullName",
          "type": "string"
        },
        {
          "internalType": "uint256",
          "name": "_dateOfBirth",
          "type": "uint256"
        },
        {
          "internalType": "string",
          "name": "_address",
          "type": "string"
        },
        {
          "internalType": "string",
          "name": "_nationality",
          "type": "string"
        },
        {
          "internalType": "string",
          "name": "_cccdNumber",
          "type": "string"
        },
        {
          "internalType": "string",
          "name": "_phone",
          "type": "string"
        }
      ],
      "name": "updateBasicInfo",
      "outputs": [],
      "stateMutability": "nonpayable",
      "type": "function"
    },
    {
      "inputs": [
        {
          "internalType": "address",
          "name": "_walletAddress",
          "type": "address"
        }
      ],
      "name": "viewIndividualInfo",
      "outputs": [
        {
          "components": [
            {
              "internalType": "uint256",
              "name": "id",
              "type": "uint256"
            },
            {
              "internalType": "string",
              "name": "fullName",
              "type": "string"
            },
            {
              "internalType": "uint256",
              "name": "dateOfBirth",
              "type": "uint256"
            },
            {
              "internalType": "string",
              "name": "address_",
              "type": "string"
            },
            {
              "internalType": "string",
              "name": "nationality",
              "type": "string"
            },
            {
              "internalType": "string",
              "name": "cccdNumber",
              "type": "string"
            },
            {
              "internalType": "string",
              "name": "phone",
              "type": "string"
            },
            {
              "internalType": "string",
              "name": "email",
              "type": "string"
            },
            {
              "internalType": "string",
              "name": "frontCccdImage",
              "type": "string"
            },
            {
              "internalType": "string",
              "name": "backCccdImage",
              "type": "string"
            },
            {
              "internalType": "address",
              "name": "walletAddress",
              "type": "address"
            },
            {
              "internalType": "bool",
              "name": "isApproved",
              "type": "bool"
            },
            {
              "internalType": "uint256",
              "name": "createdAt",
              "type": "uint256"
            },
            {
              "internalType": "uint256",
              "name": "updatedAt",
              "type": "uint256"
            },
            {
              "internalType": "bool",
              "name": "exists",
              "type": "bool"
            }
          ],
          "internalType": "struct IndividualKYC.Individual",
          "name": "",
          "type": "tuple"
        }
      ],
      "stateMutability": "view",
      "type": "function"
    },
    {
      "inputs": [
        {
          "internalType": "uint256",
          "name": "",
          "type": "uint256"
        }
      ],
      "name": "walletAddressList",
      "outputs": [
        {
          "internalType": "address",
          "name": "",
          "type": "address"
        }
      ],
      "stateMutability": "view",
      "type": "function"
    }
  ],
  "bytecode": "0x608060405260016005553480156200001657600080fd5b506001600081905550620000346000801b336200006e60201b60201c565b50620000677fa49807205ce4d355092ef5a8a18f56e8913cf4a201fbe287825b095693c21775336200006e60201b60201c565b50620001e5565b60006200008283836200017260201b60201c565b620001675760016002600085815260200190815260200160002060000160008473ffffffffffffffffffffffffffffffffffffffff1673ffffffffffffffffffffffffffffffffffffffff16815260200190815260200160002060006101000a81548160ff02191690831515021790555062000103620001dd60201b60201c565b73ffffffffffffffffffffffffffffffffffffffff168273ffffffffffffffffffffffffffffffffffffffff16847f2f8788117e7eff1d82e926ec794901d17c78024a50270940304540a733656f0d60405160405180910390a4600190506200016c565b600090505b92915050565b60006002600084815260200190815260200160002060000160008373ffffffffffffffffffffffffffffffffffffffff1673ffffffffffffffffffffffffffffffffffffffff16815260200190815260200160002060009054906101000a900460ff16905092915050565b600033905090565b6147d880620001f56000396000f3fe608060405234801561001057600080fd5b50600436106101585760003560e01c8063860d6983116100c3578063b7bfb26b1161007c578063b7bfb26b146103d9578063d4597bd8146103f5578063d547741f14610411578063e1f09c491461042d578063e2d1a0ea14610449578063ea55b5791461046557610158565b8063860d6983146102df5780638b501989146102fb57806391d148541461032b5780639ab1d29f1461035b578063a217fddf1461038b578063b6f2c8be146103a957610158565b806336568abe1161011557806336568abe146102575780633f4ba83a146102735780635c975abb1461027d57806375b238fc1461029b5780637e279531146102b95780638456cb59146102d557610158565b806301ffc9a71461015d5780631612e9071461018d578063248a9ca3146101bd57806328a8dbae146101ed5780632a9c8d611461021d5780632f2ff15d1461023b575b600080fd5b610177600480360381019061017291906131ff565b610483565b6040516101849190613247565b60405180910390f35b6101a760048036038101906101a29190613298565b6104fd565b6040516101b49190613306565b60405180910390f35b6101d760048036038101906101d29190613357565b61053c565b6040516101e49190613393565b60405180910390f35b610207600480360381019061020291906133da565b61055c565b6040516102149190613247565b60405180910390f35b6102256105b5565b6040516102329190613416565b60405180910390f35b61025560048036038101906102509190613431565b6105ed565b005b610271600480360381019061026c9190613431565b61060f565b005b61027b61068a565b005b6102856106bf565b6040516102929190613247565b60405180910390f35b6102a36106d6565b6040516102b09190613393565b60405180910390f35b6102d360048036038101906102ce91906135b7565b6106fa565b005b6102dd610845565b005b6102f960048036038101906102f4919061369e565b61087a565b005b610315600480360381019061031091906136de565b610a74565b6040516103229190613a00565b60405180910390f35b61034560048036038101906103409190613431565b6111aa565b6040516103529190613247565b60405180910390f35b610375600480360381019061037091906133da565b611215565b6040516103829190613b96565b60405180910390f35b6103936118b0565b6040516103a09190613393565b60405180910390f35b6103c360048036038101906103be91906133da565b6118b7565b6040516103d09190613b96565b60405180910390f35b6103f360048036038101906103ee9190613bb8565b611f0f565b005b61040f600480360381019061040a9190613bb8565b612176565b005b61042b60048036038101906104269190613431565b61239a565b005b610447600480360381019061044291906133da565b6123bc565b005b610463600480360381019061045e91906135b7565b6127e0565b005b61046d612983565b60405161047a9190613d95565b60405180910390f35b60007f7965db0b000000000000000000000000000000000000000000000000000000007bffffffffffffffffffffffffffffffffffffffffffffffffffffffff1916827bffffffffffffffffffffffffffffffffffffffffffffffffffffffff191614806104f657506104f582612a3c565b5b9050919050565b6004818154811061050d57600080fd5b906000526020600020016000915054906101000a900473ffffffffffffffffffffffffffffffffffffffff1681565b600060026000838152602001908152602001600020600101549050919050565b6000600360008373ffffffffffffffffffffffffffffffffffffffff1673ffffffffffffffffffffffffffffffffffffffff168152602001908152602001600020600d0160009054906101000a900460ff169050919050565b60007fa49807205ce4d355092ef5a8a18f56e8913cf4a201fbe287825b095693c217756105e181612aa6565b60048054905091505090565b6105f68261053c565b6105ff81612aa6565b6106098383612aba565b50505050565b610617612bac565b73ffffffffffffffffffffffffffffffffffffffff168173ffffffffffffffffffffffffffffffffffffffff161461067b576040517f6697b23200000000000000000000000000000000000000000000000000000000815260040160405180910390fd5b6106858282612bb4565b505050565b7fa49807205ce4d355092ef5a8a18f56e8913cf4a201fbe287825b095693c217756106b481612aa6565b6106bc612ca7565b50565b6000600160009054906101000a900460ff16905090565b7fa49807205ce4d355092ef5a8a18f56e8913cf4a201fbe287825b095693c2177581565b7fa49807205ce4d355092ef5a8a18f56e8913cf4a201fbe287825b095693c2177561072481612aa6565b61072c612d0a565b600360008673ffffffffffffffffffffffffffffffffffffffff1673ffffffffffffffffffffffffffffffffffffffff168152602001908152602001600020600d0160009054906101000a900460ff166107bb576040517f08c379a00000000000000000000000000000000000000000000000000000000081526004016107b290613e14565b60405180910390fd5b6000600360008773ffffffffffffffffffffffffffffffffffffffff1673ffffffffffffffffffffffffffffffffffffffff16815260200190815260200160002090508481600801908161080f9190614040565b50838160090190816108219190614040565b50828160070190816108339190614040565b504281600c0181905550505050505050565b7fa49807205ce4d355092ef5a8a18f56e8913cf4a201fbe287825b095693c2177561086f81612aa6565b610877612d4b565b50565b7fa49807205ce4d355092ef5a8a18f56e8913cf4a201fbe287825b095693c217756108a481612aa6565b6108ac612d0a565b600360008473ffffffffffffffffffffffffffffffffffffffff1673ffffffffffffffffffffffffffffffffffffffff168152602001908152602001600020600d0160009054906101000a900460ff1661093b576040517f08c379a00000000000000000000000000000000000000000000000000000000081526004016109329061415e565b60405180910390fd5b81600360008573ffffffffffffffffffffffffffffffffffffffff1673ffffffffffffffffffffffffffffffffffffffff168152602001908152602001600020600a0160146101000a81548160ff02191690831515021790555042600360008573ffffffffffffffffffffffffffffffffffffffff1673ffffffffffffffffffffffffffffffffffffffff168152602001908152602001600020600c01819055508273ffffffffffffffffffffffffffffffffffffffff16600360008573ffffffffffffffffffffffffffffffffffffffff1673ffffffffffffffffffffffffffffffffffffffff168152602001908152602001600020600001547f92d9b9ed8635484e296becf31c3a2dab21b8ae6195a469f3722a0e936ca438088442604051610a6792919061417e565b60405180910390a3505050565b60607fa49807205ce4d355092ef5a8a18f56e8913cf4a201fbe287825b095693c21775610aa081612aa6565b828410610ae2576040517f08c379a0000000000000000000000000000000000000000000000000000000008152600401610ad9906141f3565b60405180910390fd5b600480549050831115610b2a576040517f08c379a0000000000000000000000000000000000000000000000000000000008152600401610b219061425f565b60405180910390fd5b60008484610b3891906142ae565b67ffffffffffffffff811115610b5157610b5061348c565b5b604051908082528060200260200182016040528015610b8a57816020015b610b776130a6565b815260200190600190039081610b6f5790505b50905060008590505b8481101561119e576003600060048381548110610bb357610bb26142e2565b5b9060005260206000200160009054906101000a900473ffffffffffffffffffffffffffffffffffffffff1673ffffffffffffffffffffffffffffffffffffffff1673ffffffffffffffffffffffffffffffffffffffff168152602001908152602001600020604051806101e001604052908160008201548152602001600182018054610c3e90613e63565b80601f0160208091040260200160405190810160405280929190818152602001828054610c6a90613e63565b8015610cb75780601f10610c8c57610100808354040283529160200191610cb7565b820191906000526020600020905b815481529060010190602001808311610c9a57829003601f168201915b5050505050815260200160028201548152602001600382018054610cda90613e63565b80601f0160208091040260200160405190810160405280929190818152602001828054610d0690613e63565b8015610d535780601f10610d2857610100808354040283529160200191610d53565b820191906000526020600020905b815481529060010190602001808311610d3657829003601f168201915b50505050508152602001600482018054610d6c90613e63565b80601f0160208091040260200160405190810160405280929190818152602001828054610d9890613e63565b8015610de55780601f10610dba57610100808354040283529160200191610de5565b820191906000526020600020905b815481529060010190602001808311610dc857829003601f168201915b50505050508152602001600582018054610dfe90613e63565b80601f0160208091040260200160405190810160405280929190818152602001828054610e2a90613e63565b8015610e775780601f10610e4c57610100808354040283529160200191610e77565b820191906000526020600020905b815481529060010190602001808311610e5a57829003601f168201915b50505050508152602001600682018054610e9090613e63565b80601f0160208091040260200160405190810160405280929190818152602001828054610ebc90613e63565b8015610f095780601f10610ede57610100808354040283529160200191610f09565b820191906000526020600020905b815481529060010190602001808311610eec57829003601f168201915b50505050508152602001600782018054610f2290613e63565b80601f0160208091040260200160405190810160405280929190818152602001828054610f4e90613e63565b8015610f9b5780601f10610f7057610100808354040283529160200191610f9b565b820191906000526020600020905b815481529060010190602001808311610f7e57829003601f168201915b50505050508152602001600882018054610fb490613e63565b80601f0160208091040260200160405190810160405280929190818152602001828054610fe090613e63565b801561102d5780601f106110025761010080835404028352916020019161102d565b820191906000526020600020905b81548152906001019060200180831161101057829003601f168201915b5050505050815260200160098201805461104690613e63565b80601f016020809104026020016040519081016040528092919081815260200182805461107290613e63565b80156110bf5780601f10611094576101008083540402835291602001916110bf565b820191906000526020600020905b8154815290600101906020018083116110a257829003601f168201915b50505050508152602001600a820160009054906101000a900473ffffffffffffffffffffffffffffffffffffffff1673ffffffffffffffffffffffffffffffffffffffff1673ffffffffffffffffffffffffffffffffffffffff168152602001600a820160149054906101000a900460ff16151515158152602001600b8201548152602001600c8201548152602001600d820160009054906101000a900460ff16151515158152505082878361117591906142ae565b81518110611186576111856142e2565b5b60200260200101819052508080600101915050610b93565b50809250505092915050565b60006002600084815260200190815260200160002060000160008373ffffffffffffffffffffffffffffffffffffffff1673ffffffffffffffffffffffffffffffffffffffff16815260200190815260200160002060009054906101000a900460ff16905092915050565b61121d6130a6565b3373ffffffffffffffffffffffffffffffffffffffff168273ffffffffffffffffffffffffffffffffffffffff161461128b576040517f08c379a000000000000000000000000000000000000000000000000000000000815260040161128290614383565b60405180910390fd5b600360008373ffffffffffffffffffffffffffffffffffffffff1673ffffffffffffffffffffffffffffffffffffffff168152602001908152602001600020600d0160009054906101000a900460ff1661131a576040517f08c379a00000000000000000000000000000000000000000000000000000000081526004016113119061415e565b60405180910390fd5b600360008373ffffffffffffffffffffffffffffffffffffffff1673ffffffffffffffffffffffffffffffffffffffff168152602001908152602001600020604051806101e00160405290816000820154815260200160018201805461137f90613e63565b80601f01602080910402602001604051908101604052809291908181526020018280546113ab90613e63565b80156113f85780601f106113cd576101008083540402835291602001916113f8565b820191906000526020600020905b8154815290600101906020018083116113db57829003601f168201915b505050505081526020016002820154815260200160038201805461141b90613e63565b80601f016020809104026020016040519081016040528092919081815260200182805461144790613e63565b80156114945780601f1061146957610100808354040283529160200191611494565b820191906000526020600020905b81548152906001019060200180831161147757829003601f168201915b505050505081526020016004820180546114ad90613e63565b80601f01602080910402602001604051908101604052809291908181526020018280546114d990613e63565b80156115265780601f106114fb57610100808354040283529160200191611526565b820191906000526020600020905b81548152906001019060200180831161150957829003601f168201915b5050505050815260200160058201805461153f90613e63565b80601f016020809104026020016040519081016040528092919081815260200182805461156b90613e63565b80156115b85780601f1061158d576101008083540402835291602001916115b8565b820191906000526020600020905b81548152906001019060200180831161159b57829003601f168201915b505050505081526020016006820180546115d190613e63565b80601f01602080910402602001604051908101604052809291908181526020018280546115fd90613e63565b801561164a5780601f1061161f5761010080835404028352916020019161164a565b820191906000526020600020905b81548152906001019060200180831161162d57829003601f168201915b5050505050815260200160078201805461166390613e63565b80601f016020809104026020016040519081016040528092919081815260200182805461168f90613e63565b80156116dc5780601f106116b1576101008083540402835291602001916116dc565b820191906000526020600020905b8154815290600101906020018083116116bf57829003601f168201915b505050505081526020016008820180546116f590613e63565b80601f016020809104026020016040519081016040528092919081815260200182805461172190613e63565b801561176e5780601f106117435761010080835404028352916020019161176e565b820191906000526020600020905b81548152906001019060200180831161175157829003601f168201915b5050505050815260200160098201805461178790613e63565b80601f01602080910402602001604051908101604052809291908181526020018280546117b390613e63565b80156118005780601f106117d557610100808354040283529160200191611800565b820191906000526020600020905b8154815290600101906020018083116117e357829003601f168201915b50505050508152602001600a820160009054906101000a900473ffffffffffffffffffffffffffffffffffffffff1673ffffffffffffffffffffffffffffffffffffffff1673ffffffffffffffffffffffffffffffffffffffff168152602001600a820160149054906101000a900460ff16151515158152602001600b8201548152602001600c8201548152602001600d820160009054906101000a900460ff1615151515815250509050919050565b6000801b81565b6118bf6130a6565b7fa49807205ce4d355092ef5a8a18f56e8913cf4a201fbe287825b095693c217756118e981612aa6565b600360008473ffffffffffffffffffffffffffffffffffffffff1673ffffffffffffffffffffffffffffffffffffffff168152602001908152602001600020600d0160009054906101000a900460ff16611978576040517f08c379a000000000000000000000000000000000000000000000000000000000815260040161196f9061415e565b60405180910390fd5b600360008473ffffffffffffffffffffffffffffffffffffffff1673ffffffffffffffffffffffffffffffffffffffff168152602001908152602001600020604051806101e0016040529081600082015481526020016001820180546119dd90613e63565b80601f0160208091040260200160405190810160405280929190818152602001828054611a0990613e63565b8015611a565780601f10611a2b57610100808354040283529160200191611a56565b820191906000526020600020905b815481529060010190602001808311611a3957829003601f168201915b5050505050815260200160028201548152602001600382018054611a7990613e63565b80601f0160208091040260200160405190810160405280929190818152602001828054611aa590613e63565b8015611af25780601f10611ac757610100808354040283529160200191611af2565b820191906000526020600020905b815481529060010190602001808311611ad557829003601f168201915b50505050508152602001600482018054611b0b90613e63565b80601f0160208091040260200160405190810160405280929190818152602001828054611b3790613e63565b8015611b845780601f10611b5957610100808354040283529160200191611b84565b820191906000526020600020905b815481529060010190602001808311611b6757829003601f168201915b50505050508152602001600582018054611b9d90613e63565b80601f0160208091040260200160405190810160405280929190818152602001828054611bc990613e63565b8015611c165780601f10611beb57610100808354040283529160200191611c16565b820191906000526020600020905b815481529060010190602001808311611bf957829003601f168201915b50505050508152602001600682018054611c2f90613e63565b80601f0160208091040260200160405190810160405280929190818152602001828054611c5b90613e63565b8015611ca85780601f10611c7d57610100808354040283529160200191611ca8565b820191906000526020600020905b815481529060010190602001808311611c8b57829003601f168201915b50505050508152602001600782018054611cc190613e63565b80601f0160208091040260200160405190810160405280929190818152602001828054611ced90613e63565b8015611d3a5780601f10611d0f57610100808354040283529160200191611d3a565b820191906000526020600020905b815481529060010190602001808311611d1d57829003601f168201915b50505050508152602001600882018054611d5390613e63565b80601f0160208091040260200160405190810160405280929190818152602001828054611d7f90613e63565b8015611dcc5780601f10611da157610100808354040283529160200191611dcc565b820191906000526020600020905b815481529060010190602001808311611daf57829003601f168201915b50505050508152602001600982018054611de590613e63565b80601f0160208091040260200160405190810160405280929190818152602001828054611e1190613e63565b8015611e5e5780601f10611e3357610100808354040283529160200191611e5e565b820191906000526020600020905b815481529060010190602001808311611e4157829003601f168201915b50505050508152602001600a820160009054906101000a900473ffffffffffffffffffffffffffffffffffffffff1673ffffffffffffffffffffffffffffffffffffffff1673ffffffffffffffffffffffffffffffffffffffff168152602001600a820160149054906101000a900460ff16151515158152602001600b8201548152602001600c8201548152602001600d820160009054906101000a900460ff161515151581525050915050919050565b7fa49807205ce4d355092ef5a8a18f56e8913cf4a201fbe287825b095693c21775611f3981612aa6565b611f41612dad565b611f49612d0a565b6000600360008a73ffffffffffffffffffffffffffffffffffffffff1673ffffffffffffffffffffffffffffffffffffffff168152602001908152602001600020600b015414611fce576040517f08c379a0000000000000000000000000000000000000000000000000000000008152600401611fc5906143ef565b60405180910390fd5b600360008973ffffffffffffffffffffffffffffffffffffffff1673ffffffffffffffffffffffffffffffffffffffff168152602001908152602001600020600d0160009054906101000a900460ff161561205e576040517f08c379a000000000000000000000000000000000000000000000000000000000815260040161205590614481565b60405180910390fd5b600073ffffffffffffffffffffffffffffffffffffffff168873ffffffffffffffffffffffffffffffffffffffff16036120cd576040517f08c379a00000000000000000000000000000000000000000000000000000000081526004016120c4906144ed565b60405180910390fd5b6000875111612111576040517f08c379a000000000000000000000000000000000000000000000000000000000815260040161210890614559565b60405180910390fd5b6000835111612155576040517f08c379a000000000000000000000000000000000000000000000000000000000815260040161214c906145c5565b60405180910390fd5b61216488888888888888612df3565b61216c61300b565b5050505050505050565b7fa49807205ce4d355092ef5a8a18f56e8913cf4a201fbe287825b095693c217756121a081612aa6565b6121a8612dad565b6121b0612d0a565b600360008973ffffffffffffffffffffffffffffffffffffffff1673ffffffffffffffffffffffffffffffffffffffff168152602001908152602001600020600d0160009054906101000a900460ff1661223f576040517f08c379a00000000000000000000000000000000000000000000000000000000081526004016122369061415e565b60405180910390fd5b6000875111612283576040517f08c379a000000000000000000000000000000000000000000000000000000000815260040161227a90614559565b60405180910390fd5b6000600360008a73ffffffffffffffffffffffffffffffffffffffff1673ffffffffffffffffffffffffffffffffffffffff1681526020019081526020016000209050878160010190816122d79190614040565b50868160020181905550858160030190816122f29190614040565b50848160040190816123049190614040565b50838160050190816123169190614040565b50828160060190816123289190614040565b504281600c01819055508873ffffffffffffffffffffffffffffffffffffffff1681600001547f80e27b76a6c3f3066ce4a8f793e042175bb2b5e268484a948f1b27edcbf306678a4260405161237f92919061461e565b60405180910390a35061239061300b565b5050505050505050565b6123a38261053c565b6123ac81612aa6565b6123b68383612bb4565b50505050565b7fa49807205ce4d355092ef5a8a18f56e8913cf4a201fbe287825b095693c217756123e681612aa6565b6123ee612dad565b6123f6612d0a565b600360008373ffffffffffffffffffffffffffffffffffffffff1673ffffffffffffffffffffffffffffffffffffffff168152602001908152602001600020600d0160009054906101000a900460ff16612485576040517f08c379a000000000000000000000000000000000000000000000000000000000815260040161247c9061415e565b60405180910390fd5b6000600360008473ffffffffffffffffffffffffffffffffffffffff1673ffffffffffffffffffffffffffffffffffffffff168152602001908152602001600020600001549050600360008473ffffffffffffffffffffffffffffffffffffffff1673ffffffffffffffffffffffffffffffffffffffff1681526020019081526020016000206000808201600090556001820160006125249190613136565b600282016000905560038201600061253c9190613136565b60048201600061254c9190613136565b60058201600061255c9190613136565b60068201600061256c9190613136565b60078201600061257c9190613136565b60088201600061258c9190613136565b60098201600061259c9190613136565b600a820160006101000a81549073ffffffffffffffffffffffffffffffffffffffff0219169055600a820160146101000a81549060ff0219169055600b820160009055600c820160009055600d820160006101000a81549060ff0219169055505060005b600480549050811015612783578373ffffffffffffffffffffffffffffffffffffffff1660048281548110612638576126376142e2565b5b9060005260206000200160009054906101000a900473ffffffffffffffffffffffffffffffffffffffff1673ffffffffffffffffffffffffffffffffffffffff1603612776576004600160048054905061269291906142ae565b815481106126a3576126a26142e2565b5b9060005260206000200160009054906101000a900473ffffffffffffffffffffffffffffffffffffffff16600482815481106126e2576126e16142e2565b5b9060005260206000200160006101000a81548173ffffffffffffffffffffffffffffffffffffffff021916908373ffffffffffffffffffffffffffffffffffffffff160217905550600480548061273c5761273b61464e565b5b6001900381819060005260206000200160006101000a81549073ffffffffffffffffffffffffffffffffffffffff02191690559055612783565b8080600101915050612600565b508273ffffffffffffffffffffffffffffffffffffffff16817fb98e0102a35ba3c8f17e50b7ac65050ce84396f176be92b9a6b8484d14e59af0426040516127cb9190613416565b60405180910390a3506127dc61300b565b5050565b7fa49807205ce4d355092ef5a8a18f56e8913cf4a201fbe287825b095693c2177561280a81612aa6565b612812612d0a565b600360008673ffffffffffffffffffffffffffffffffffffffff1673ffffffffffffffffffffffffffffffffffffffff168152602001908152602001600020600d0160009054906101000a900460ff166128a1576040517f08c379a00000000000000000000000000000000000000000000000000000000081526004016128989061415e565b60405180910390fd5b6000600360008773ffffffffffffffffffffffffffffffffffffffff1673ffffffffffffffffffffffffffffffffffffffff1681526020019081526020016000209050848160080190816128f59190614040565b50838160090190816129079190614040565b50828160070190816129199190614040565b504281600c01819055508573ffffffffffffffffffffffffffffffffffffffff1681600001547f80e27b76a6c3f3066ce4a8f793e042175bb2b5e268484a948f1b27edcbf306678360010142604051612973929190614701565b60405180910390a3505050505050565b60607fa49807205ce4d355092ef5a8a18f56e8913cf4a201fbe287825b095693c217756129af81612aa6565b6004805480602002602001604051908101604052809291908181526020018280548015612a3157602002820191906000526020600020905b8160009054906101000a900473ffffffffffffffffffffffffffffffffffffffff1673ffffffffffffffffffffffffffffffffffffffff16815260200190600101908083116129e7575b505050505091505090565b60007f01ffc9a7000000000000000000000000000000000000000000000000000000007bffffffffffffffffffffffffffffffffffffffffffffffffffffffff1916827bffffffffffffffffffffffffffffffffffffffffffffffffffffffff1916149050919050565b612ab781612ab2612bac565b613015565b50565b6000612ac683836111aa565b612ba15760016002600085815260200190815260200160002060000160008473ffffffffffffffffffffffffffffffffffffffff1673ffffffffffffffffffffffffffffffffffffffff16815260200190815260200160002060006101000a81548160ff021916908315150217905550612b3e612bac565b73ffffffffffffffffffffffffffffffffffffffff168273ffffffffffffffffffffffffffffffffffffffff16847f2f8788117e7eff1d82e926ec794901d17c78024a50270940304540a733656f0d60405160405180910390a460019050612ba6565b600090505b92915050565b600033905090565b6000612bc083836111aa565b15612c9c5760006002600085815260200190815260200160002060000160008473ffffffffffffffffffffffffffffffffffffffff1673ffffffffffffffffffffffffffffffffffffffff16815260200190815260200160002060006101000a81548160ff021916908315150217905550612c39612bac565b73ffffffffffffffffffffffffffffffffffffffff168273ffffffffffffffffffffffffffffffffffffffff16847ff6391f5c32d9c69d2a47ea670b442974b53935d1edc7fd64eb21e047a839171b60405160405180910390a460019050612ca1565b600090505b92915050565b612caf613066565b6000600160006101000a81548160ff0219169083151502179055507f5db9ee0a495bf2e6ff9c91a7834c1ba4fdd244a5e8aa4e537bd38aeae4b073aa612cf3612bac565b604051612d009190613306565b60405180910390a1565b612d126106bf565b15612d49576040517fd93c066500000000000000000000000000000000000000000000000000000000815260040160405180910390fd5b565b612d53612d0a565b60018060006101000a81548160ff0219169083151502179055507f62e78cea01bee320cd4e420270b5ea74000d11b0c9f74754ebdbfc544b05a258612d96612bac565b604051612da39190613306565b60405180910390a1565b600260005403612de9576040517f3ee5aeb500000000000000000000000000000000000000000000000000000000815260040160405180910390fd5b6002600081905550565b600060056000815480929190612e0890614731565b9190505590506000600360008a73ffffffffffffffffffffffffffffffffffffffff1673ffffffffffffffffffffffffffffffffffffffff168152602001908152602001600020905081816000018190555087816001019081612e6b9190614040565b5086816002018190555085816003019081612e869190614040565b5084816004019081612e989190614040565b5083816005019081612eaa9190614040565b5082816006019081612ebc9190614040565b50600081600a0160146101000a81548160ff0219169083151502179055508881600a0160006101000a81548173ffffffffffffffffffffffffffffffffffffffff021916908373ffffffffffffffffffffffffffffffffffffffff1602179055504281600b01819055504281600c0181905550600181600d0160006101000a81548160ff0219169083151502179055506004899080600181540180825580915050600190039060005260206000200160009091909190916101000a81548173ffffffffffffffffffffffffffffffffffffffff021916908373ffffffffffffffffffffffffffffffffffffffff1602179055508873ffffffffffffffffffffffffffffffffffffffff16827f02169ab3904c82d934284946fdd9b1ac07a8c15b47abba77896486bfd314a2398a42604051612ff892919061461e565b60405180910390a3505050505050505050565b6001600081905550565b61301f82826111aa565b6130625780826040517fe2517d3f000000000000000000000000000000000000000000000000000000008152600401613059929190614779565b60405180910390fd5b5050565b61306e6106bf565b6130a4576040517f8dfc202b00000000000000000000000000000000000000000000000000000000815260040160405180910390fd5b565b604051806101e0016040528060008152602001606081526020016000815260200160608152602001606081526020016060815260200160608152602001606081526020016060815260200160608152602001600073ffffffffffffffffffffffffffffffffffffffff16815260200160001515815260200160008152602001600081526020016000151581525090565b50805461314290613e63565b6000825580601f106131545750613173565b601f0160209004906000526020600020908101906131729190613176565b5b50565b5b8082111561318f576000816000905550600101613177565b5090565b6000604051905090565b600080fd5b600080fd5b60007fffffffff0000000000000000000000000000000000000000000000000000000082169050919050565b6131dc816131a7565b81146131e757600080fd5b50565b6000813590506131f9816131d3565b92915050565b6000602082840312156132155761321461319d565b5b6000613223848285016131ea565b91505092915050565b60008115159050919050565b6132418161322c565b82525050565b600060208201905061325c6000830184613238565b92915050565b6000819050919050565b61327581613262565b811461328057600080fd5b50565b6000813590506132928161326c565b92915050565b6000602082840312156132ae576132ad61319d565b5b60006132bc84828501613283565b91505092915050565b600073ffffffffffffffffffffffffffffffffffffffff82169050919050565b60006132f0826132c5565b9050919050565b613300816132e5565b82525050565b600060208201905061331b60008301846132f7565b92915050565b6000819050919050565b61333481613321565b811461333f57600080fd5b50565b6000813590506133518161332b565b92915050565b60006020828403121561336d5761336c61319d565b5b600061337b84828501613342565b91505092915050565b61338d81613321565b82525050565b60006020820190506133a86000830184613384565b92915050565b6133b7816132e5565b81146133c257600080fd5b50565b6000813590506133d4816133ae565b92915050565b6000602082840312156133f0576133ef61319d565b5b60006133fe848285016133c5565b91505092915050565b61341081613262565b82525050565b600060208201905061342b6000830184613407565b92915050565b600080604083850312156134485761344761319d565b5b600061345685828601613342565b9250506020613467858286016133c5565b9150509250929050565b600080fd5b600080fd5b6000601f19601f8301169050919050565b7f4e487b7100000000000000000000000000000000000000000000000000000000600052604160045260246000fd5b6134c48261347b565b810181811067ffffffffffffffff821117156134e3576134e261348c565b5b80604052505050565b60006134f6613193565b905061350282826134bb565b919050565b600067ffffffffffffffff8211156135225761352161348c565b5b61352b8261347b565b9050602081019050919050565b82818337600083830152505050565b600061355a61355584613507565b6134ec565b90508281526020810184848401111561357657613575613476565b5b613581848285613538565b509392505050565b600082601f83011261359e5761359d613471565b5b81356135ae848260208601613547565b91505092915050565b600080600080608085870312156135d1576135d061319d565b5b60006135df878288016133c5565b945050602085013567ffffffffffffffff811115613600576135ff6131a2565b5b61360c87828801613589565b935050604085013567ffffffffffffffff81111561362d5761362c6131a2565b5b61363987828801613589565b925050606085013567ffffffffffffffff81111561365a576136596131a2565b5b61366687828801613589565b91505092959194509250565b61367b8161322c565b811461368657600080fd5b50565b60008135905061369881613672565b92915050565b600080604083850312156136b5576136b461319d565b5b60006136c3858286016133c5565b92505060206136d485828601613689565b9150509250929050565b600080604083850312156136f5576136f461319d565b5b600061370385828601613283565b925050602061371485828601613283565b9150509250929050565b600081519050919050565b600082825260208201905092915050565b6000819050602082019050919050565b61375381613262565b82525050565b600081519050919050565b600082825260208201905092915050565b60005b83811015613793578082015181840152602081019050613778565b60008484015250505050565b60006137aa82613759565b6137b48185613764565b93506137c4818560208601613775565b6137cd8161347b565b840191505092915050565b6137e1816132e5565b82525050565b6137f08161322c565b82525050565b60006101e08301600083015161380f600086018261374a565b5060208301518482036020860152613827828261379f565b915050604083015161383c604086018261374a565b5060608301518482036060860152613854828261379f565b9150506080830151848203608086015261386e828261379f565b91505060a083015184820360a0860152613888828261379f565b91505060c083015184820360c08601526138a2828261379f565b91505060e083015184820360e08601526138bc828261379f565b9150506101008301518482036101008601526138d8828261379f565b9150506101208301518482036101208601526138f4828261379f565b91505061014083015161390b6101408601826137d8565b506101608301516139206101608601826137e7565b5061018083015161393561018086018261374a565b506101a083015161394a6101a086018261374a565b506101c083015161395f6101c08601826137e7565b508091505092915050565b600061397683836137f6565b905092915050565b6000602082019050919050565b60006139968261371e565b6139a08185613729565b9350836020820285016139b28561373a565b8060005b858110156139ee57848403895281516139cf858261396a565b94506139da8361397e565b925060208a019950506001810190506139b6565b50829750879550505050505092915050565b60006020820190508181036000830152613a1a818461398b565b905092915050565b60006101e083016000830151613a3b600086018261374a565b5060208301518482036020860152613a53828261379f565b9150506040830151613a68604086018261374a565b5060608301518482036060860152613a80828261379f565b91505060808301518482036080860152613a9a828261379f565b91505060a083015184820360a0860152613ab4828261379f565b91505060c083015184820360c0860152613ace828261379f565b91505060e083015184820360e0860152613ae8828261379f565b915050610100830151848203610100860152613b04828261379f565b915050610120830151848203610120860152613b20828261379f565b915050610140830151613b376101408601826137d8565b50610160830151613b4c6101608601826137e7565b50610180830151613b6161018086018261374a565b506101a0830151613b766101a086018261374a565b506101c0830151613b8b6101c08601826137e7565b508091505092915050565b60006020820190508181036000830152613bb08184613a22565b905092915050565b600080600080600080600060e0888a031215613bd757613bd661319d565b5b6000613be58a828b016133c5565b975050602088013567ffffffffffffffff811115613c0657613c056131a2565b5b613c128a828b01613589565b9650506040613c238a828b01613283565b955050606088013567ffffffffffffffff811115613c4457613c436131a2565b5b613c508a828b01613589565b945050608088013567ffffffffffffffff811115613c7157613c706131a2565b5b613c7d8a828b01613589565b93505060a088013567ffffffffffffffff811115613c9e57613c9d6131a2565b5b613caa8a828b01613589565b92505060c088013567ffffffffffffffff811115613ccb57613cca6131a2565b5b613cd78a828b01613589565b91505092959891949750929550565b600081519050919050565b600082825260208201905092915050565b6000819050602082019050919050565b6000613d1e83836137d8565b60208301905092915050565b6000602082019050919050565b6000613d4282613ce6565b613d4c8185613cf1565b9350613d5783613d02565b8060005b83811015613d88578151613d6f8882613d12565b9750613d7a83613d2a565b925050600181019050613d5b565b5085935050505092915050565b60006020820190508181036000830152613daf8184613d37565b905092915050565b600082825260208201905092915050565b7f496e646976696475616c20686173206e6f74206265656e206372656174656400600082015250565b6000613dfe601f83613db7565b9150613e0982613dc8565b602082019050919050565b60006020820190508181036000830152613e2d81613df1565b9050919050565b7f4e487b7100000000000000000000000000000000000000000000000000000000600052602260045260246000fd5b60006002820490506001821680613e7b57607f821691505b602082108103613e8e57613e8d613e34565b5b50919050565b60008190508160005260206000209050919050565b60006020601f8301049050919050565b600082821b905092915050565b600060088302613ef67fffffffffffffffffffffffffffffffffffffffffffffffffffffffffffffffff82613eb9565b613f008683613eb9565b95508019841693508086168417925050509392505050565b6000819050919050565b6000613f3d613f38613f3384613262565b613f18565b613262565b9050919050565b6000819050919050565b613f5783613f22565b613f6b613f6382613f44565b848454613ec6565b825550505050565b600090565b613f80613f73565b613f8b818484613f4e565b505050565b5b81811015613faf57613fa4600082613f78565b600181019050613f91565b5050565b601f821115613ff457613fc581613e94565b613fce84613ea9565b81016020851015613fdd578190505b613ff1613fe985613ea9565b830182613f90565b50505b505050565b600082821c905092915050565b600061401760001984600802613ff9565b1980831691505092915050565b60006140308383614006565b9150826002028217905092915050565b61404982613759565b67ffffffffffffffff8111156140625761406161348c565b5b61406c8254613e63565b614077828285613fb3565b600060209050601f8311600181146140aa5760008415614098578287015190505b6140a28582614024565b86555061410a565b601f1984166140b886613e94565b60005b828110156140e0578489015182556001820191506020850194506020810190506140bb565b868310156140fd57848901516140f9601f891682614006565b8355505b6001600288020188555050505b505050505050565b7f496e646976696475616c20646f6573206e6f7420657869737400000000000000600082015250565b6000614148601983613db7565b915061415382614112565b602082019050919050565b600060208201905081810360008301526141778161413b565b9050919050565b60006040820190506141936000830185613238565b6141a06020830184613407565b9392505050565b7f5374617274206d757374206265206c657373207468616e20656e640000000000600082015250565b60006141dd601b83613db7565b91506141e8826141a7565b602082019050919050565b6000602082019050818103600083015261420c816141d0565b9050919050565b7f456e64206578636565647320746f74616c20696e646976696475616c73000000600082015250565b6000614249601d83613db7565b915061425482614213565b602082019050919050565b600060208201905081810360008301526142788161423c565b9050919050565b7f4e487b7100000000000000000000000000000000000000000000000000000000600052601160045260246000fd5b60006142b982613262565b91506142c483613262565b92508282039050818111156142dc576142db61427f565b5b92915050565b7f4e487b7100000000000000000000000000000000000000000000000000000000600052603260045260246000fd5b7f43616e206f6e6c79207669657720796f7572206f776e20696e666f726d61746960008201527f6f6e000000000000000000000000000000000000000000000000000000000000602082015250565b600061436d602283613db7565b915061437882614311565b604082019050919050565b6000602082019050818103600083015261439c81614360565b9050919050565b7f496e646976696475616c20616c72656164792072656769737465726564000000600082015250565b60006143d9601d83613db7565b91506143e4826143a3565b602082019050919050565b60006020820190508181036000830152614408816143cc565b9050919050565b7f496e646976696475616c20616c7265616479206578697374732077697468207460008201527f6869732077616c6c657420616464726573730000000000000000000000000000602082015250565b600061446b603283613db7565b91506144768261440f565b604082019050919050565b6000602082019050818103600083015261449a8161445e565b9050919050565b7f496e76616c69642077616c6c6574206164647265737300000000000000000000600082015250565b60006144d7601683613db7565b91506144e2826144a1565b602082019050919050565b60006020820190508181036000830152614506816144ca565b9050919050565b7f46756c6c206e616d652063616e6e6f7420626520656d70747900000000000000600082015250565b6000614543601983613db7565b915061454e8261450d565b602082019050919050565b6000602082019050818103600083015261457281614536565b9050919050565b7f43434344206e756d6265722063616e6e6f7420626520656d7074790000000000600082015250565b60006145af601b83613db7565b91506145ba82614579565b602082019050919050565b600060208201905081810360008301526145de816145a2565b9050919050565b60006145f082613759565b6145fa8185613db7565b935061460a818560208601613775565b6146138161347b565b840191505092915050565b6000604082019050818103600083015261463881856145e5565b90506146476020830184613407565b9392505050565b7f4e487b7100000000000000000000000000000000000000000000000000000000600052603160045260246000fd5b6000815461468a81613e63565b6146948186613db7565b945060018216600081146146af57600181146146c5576146f8565b60ff1983168652811515602002860193506146f8565b6146ce85613e94565b60005b838110156146f0578154818901526001820191506020810190506146d1565b808801955050505b50505092915050565b6000604082019050818103600083015261471b818561467d565b905061472a6020830184613407565b9392505050565b600061473c82613262565b91507fffffffffffffffffffffffffffffffffffffffffffffffffffffffffffffffff820361476e5761476d61427f565b5b600182019050919050565b600060408201905061478e60008301856132f7565b61479b6020830184613384565b939250505056fea2646970667358221220aac2d7d071e9ed4f9bc330bc196031cf1a22777d8e15a8b93f12172661259cd064736f6c63430008180033",
  "linkReferences": {},
  "deployedLinkReferences": {}
}